{
  "contractName": "PeoplesGovernor",
  "abi": [
    {
      "inputs": [
        {
          "internalType": "contract IVotes",
          "name": "_token",
          "type": "address"
        }
      ],
      "stateMutability": "nonpayable",
      "type": "constructor"
    },
    {
      "anonymous": false,
      "inputs": [
        {
          "indexed": false,
          "internalType": "uint256",
          "name": "proposalId",
          "type": "uint256"
        }
      ],
      "name": "ProposalCanceled",
      "type": "event"
    },
    {
      "anonymous": false,
      "inputs": [
        {
          "indexed": false,
          "internalType": "uint256",
          "name": "proposalId",
          "type": "uint256"
        },
        {
          "indexed": false,
          "internalType": "address",
          "name": "proposer",
          "type": "address"
        },
        {
          "indexed": false,
          "internalType": "address[]",
          "name": "targets",
          "type": "address[]"
        },
        {
          "indexed": false,
          "internalType": "uint256[]",
          "name": "values",
          "type": "uint256[]"
        },
        {
          "indexed": false,
          "internalType": "string[]",
          "name": "signatures",
          "type": "string[]"
        },
        {
          "indexed": false,
          "internalType": "bytes[]",
          "name": "calldatas",
          "type": "bytes[]"
        },
        {
          "indexed": false,
          "internalType": "uint256",
          "name": "startBlock",
          "type": "uint256"
        },
        {
          "indexed": false,
          "internalType": "uint256",
          "name": "endBlock",
          "type": "uint256"
        },
        {
          "indexed": false,
          "internalType": "string",
          "name": "description",
          "type": "string"
        }
      ],
      "name": "ProposalCreated",
      "type": "event"
    },
    {
      "anonymous": false,
      "inputs": [
        {
          "indexed": false,
          "internalType": "uint256",
          "name": "proposalId",
          "type": "uint256"
        }
      ],
      "name": "ProposalExecuted",
      "type": "event"
    },
    {
      "anonymous": false,
      "inputs": [
        {
          "indexed": false,
          "internalType": "uint256",
          "name": "oldQuorumNumerator",
          "type": "uint256"
        },
        {
          "indexed": false,
          "internalType": "uint256",
          "name": "newQuorumNumerator",
          "type": "uint256"
        }
      ],
      "name": "QuorumNumeratorUpdated",
      "type": "event"
    },
    {
      "anonymous": false,
      "inputs": [
        {
          "indexed": true,
          "internalType": "address",
          "name": "voter",
          "type": "address"
        },
        {
          "indexed": false,
          "internalType": "uint256",
          "name": "proposalId",
          "type": "uint256"
        },
        {
          "indexed": false,
          "internalType": "uint8",
          "name": "support",
          "type": "uint8"
        },
        {
          "indexed": false,
          "internalType": "uint256",
          "name": "weight",
          "type": "uint256"
        },
        {
          "indexed": false,
          "internalType": "string",
          "name": "reason",
          "type": "string"
        }
      ],
      "name": "VoteCast",
      "type": "event"
    },
    {
      "inputs": [],
      "name": "BALLOT_TYPEHASH",
      "outputs": [
        {
          "internalType": "bytes32",
          "name": "",
          "type": "bytes32"
        }
      ],
      "stateMutability": "view",
      "type": "function",
      "constant": true
    },
    {
      "inputs": [],
      "name": "COUNTING_MODE",
      "outputs": [
        {
          "internalType": "string",
          "name": "",
          "type": "string"
        }
      ],
      "stateMutability": "pure",
      "type": "function",
      "constant": true
    },
    {
      "inputs": [
        {
          "internalType": "uint256",
          "name": "proposalId",
          "type": "uint256"
        },
        {
          "internalType": "uint8",
          "name": "support",
          "type": "uint8"
        }
      ],
      "name": "castVote",
      "outputs": [
        {
          "internalType": "uint256",
          "name": "",
          "type": "uint256"
        }
      ],
      "stateMutability": "nonpayable",
      "type": "function"
    },
    {
      "inputs": [
        {
          "internalType": "uint256",
          "name": "proposalId",
          "type": "uint256"
        },
        {
          "internalType": "uint8",
          "name": "support",
          "type": "uint8"
        },
        {
          "internalType": "uint8",
          "name": "v",
          "type": "uint8"
        },
        {
          "internalType": "bytes32",
          "name": "r",
          "type": "bytes32"
        },
        {
          "internalType": "bytes32",
          "name": "s",
          "type": "bytes32"
        }
      ],
      "name": "castVoteBySig",
      "outputs": [
        {
          "internalType": "uint256",
          "name": "",
          "type": "uint256"
        }
      ],
      "stateMutability": "nonpayable",
      "type": "function"
    },
    {
      "inputs": [
        {
          "internalType": "uint256",
          "name": "proposalId",
          "type": "uint256"
        },
        {
          "internalType": "uint8",
          "name": "support",
          "type": "uint8"
        },
        {
          "internalType": "string",
          "name": "reason",
          "type": "string"
        }
      ],
      "name": "castVoteWithReason",
      "outputs": [
        {
          "internalType": "uint256",
          "name": "",
          "type": "uint256"
        }
      ],
      "stateMutability": "nonpayable",
      "type": "function"
    },
    {
      "inputs": [
        {
          "internalType": "address[]",
          "name": "targets",
          "type": "address[]"
        },
        {
          "internalType": "uint256[]",
          "name": "values",
          "type": "uint256[]"
        },
        {
          "internalType": "bytes[]",
          "name": "calldatas",
          "type": "bytes[]"
        },
        {
          "internalType": "bytes32",
          "name": "descriptionHash",
          "type": "bytes32"
        }
      ],
      "name": "execute",
      "outputs": [
        {
          "internalType": "uint256",
          "name": "",
          "type": "uint256"
        }
      ],
      "stateMutability": "payable",
      "type": "function",
      "payable": true
    },
    {
      "inputs": [
        {
          "internalType": "address",
          "name": "account",
          "type": "address"
        },
        {
          "internalType": "uint256",
          "name": "blockNumber",
          "type": "uint256"
        }
      ],
      "name": "getVotes",
      "outputs": [
        {
          "internalType": "uint256",
          "name": "",
          "type": "uint256"
        }
      ],
      "stateMutability": "view",
      "type": "function",
      "constant": true
    },
    {
      "inputs": [
        {
          "internalType": "uint256",
          "name": "proposalId",
          "type": "uint256"
        },
        {
          "internalType": "address",
          "name": "account",
          "type": "address"
        }
      ],
      "name": "hasVoted",
      "outputs": [
        {
          "internalType": "bool",
          "name": "",
          "type": "bool"
        }
      ],
      "stateMutability": "view",
      "type": "function",
      "constant": true
    },
    {
      "inputs": [
        {
          "internalType": "address[]",
          "name": "targets",
          "type": "address[]"
        },
        {
          "internalType": "uint256[]",
          "name": "values",
          "type": "uint256[]"
        },
        {
          "internalType": "bytes[]",
          "name": "calldatas",
          "type": "bytes[]"
        },
        {
          "internalType": "bytes32",
          "name": "descriptionHash",
          "type": "bytes32"
        }
      ],
      "name": "hashProposal",
      "outputs": [
        {
          "internalType": "uint256",
          "name": "",
          "type": "uint256"
        }
      ],
      "stateMutability": "pure",
      "type": "function",
      "constant": true
    },
    {
      "inputs": [],
      "name": "name",
      "outputs": [
        {
          "internalType": "string",
          "name": "",
          "type": "string"
        }
      ],
      "stateMutability": "view",
      "type": "function",
      "constant": true
    },
    {
      "inputs": [
        {
          "internalType": "uint256",
          "name": "proposalId",
          "type": "uint256"
        }
      ],
      "name": "proposalDeadline",
      "outputs": [
        {
          "internalType": "uint256",
          "name": "",
          "type": "uint256"
        }
      ],
      "stateMutability": "view",
      "type": "function",
      "constant": true
    },
    {
      "inputs": [
        {
          "internalType": "uint256",
          "name": "proposalId",
          "type": "uint256"
        }
      ],
      "name": "proposalSnapshot",
      "outputs": [
        {
          "internalType": "uint256",
          "name": "",
          "type": "uint256"
        }
      ],
      "stateMutability": "view",
      "type": "function",
      "constant": true
    },
    {
      "inputs": [
        {
          "internalType": "uint256",
          "name": "proposalId",
          "type": "uint256"
        }
      ],
      "name": "proposalVotes",
      "outputs": [
        {
          "internalType": "uint256",
          "name": "againstVotes",
          "type": "uint256"
        },
        {
          "internalType": "uint256",
          "name": "forVotes",
          "type": "uint256"
        },
        {
          "internalType": "uint256",
          "name": "abstainVotes",
          "type": "uint256"
        }
      ],
      "stateMutability": "view",
      "type": "function",
      "constant": true
    },
    {
      "inputs": [
        {
          "internalType": "address[]",
          "name": "targets",
          "type": "address[]"
        },
        {
          "internalType": "uint256[]",
          "name": "values",
          "type": "uint256[]"
        },
        {
          "internalType": "bytes[]",
          "name": "calldatas",
          "type": "bytes[]"
        },
        {
          "internalType": "string",
          "name": "description",
          "type": "string"
        }
      ],
      "name": "propose",
      "outputs": [
        {
          "internalType": "uint256",
          "name": "",
          "type": "uint256"
        }
      ],
      "stateMutability": "nonpayable",
      "type": "function"
    },
    {
      "inputs": [
        {
          "internalType": "uint256",
          "name": "blockNumber",
          "type": "uint256"
        }
      ],
      "name": "quorum",
      "outputs": [
        {
          "internalType": "uint256",
          "name": "",
          "type": "uint256"
        }
      ],
      "stateMutability": "view",
      "type": "function",
      "constant": true
    },
    {
      "inputs": [],
      "name": "quorumDenominator",
      "outputs": [
        {
          "internalType": "uint256",
          "name": "",
          "type": "uint256"
        }
      ],
      "stateMutability": "view",
      "type": "function",
      "constant": true
    },
    {
      "inputs": [],
      "name": "quorumNumerator",
      "outputs": [
        {
          "internalType": "uint256",
          "name": "",
          "type": "uint256"
        }
      ],
      "stateMutability": "view",
      "type": "function",
      "constant": true
    },
    {
      "inputs": [
        {
          "internalType": "address",
          "name": "target",
          "type": "address"
        },
        {
          "internalType": "uint256",
          "name": "value",
          "type": "uint256"
        },
        {
          "internalType": "bytes",
          "name": "data",
          "type": "bytes"
        }
      ],
      "name": "relay",
      "outputs": [],
      "stateMutability": "nonpayable",
      "type": "function"
    },
    {
      "inputs": [
        {
          "internalType": "uint256",
          "name": "proposalId",
          "type": "uint256"
        }
      ],
      "name": "state",
      "outputs": [
        {
          "internalType": "enum IGovernor.ProposalState",
          "name": "",
          "type": "uint8"
        }
      ],
      "stateMutability": "view",
      "type": "function",
      "constant": true
    },
    {
      "inputs": [
        {
          "internalType": "bytes4",
          "name": "interfaceId",
          "type": "bytes4"
        }
      ],
      "name": "supportsInterface",
      "outputs": [
        {
          "internalType": "bool",
          "name": "",
          "type": "bool"
        }
      ],
      "stateMutability": "view",
      "type": "function",
      "constant": true
    },
    {
      "inputs": [],
      "name": "token",
      "outputs": [
        {
          "internalType": "contract IVotes",
          "name": "",
          "type": "address"
        }
      ],
      "stateMutability": "view",
      "type": "function",
      "constant": true
    },
    {
      "inputs": [
        {
          "internalType": "uint256",
          "name": "newQuorumNumerator",
          "type": "uint256"
        }
      ],
      "name": "updateQuorumNumerator",
      "outputs": [],
      "stateMutability": "nonpayable",
      "type": "function"
    },
    {
      "inputs": [],
      "name": "version",
      "outputs": [
        {
          "internalType": "string",
          "name": "",
          "type": "string"
        }
      ],
      "stateMutability": "view",
      "type": "function",
      "constant": true
    },
    {
      "stateMutability": "payable",
      "type": "receive",
      "payable": true
    },
    {
      "inputs": [],
      "name": "votingDelay",
      "outputs": [
        {
          "internalType": "uint256",
          "name": "",
          "type": "uint256"
        }
      ],
      "stateMutability": "pure",
      "type": "function",
      "constant": true
    },
    {
      "inputs": [],
      "name": "votingPeriod",
      "outputs": [
        {
          "internalType": "uint256",
          "name": "",
          "type": "uint256"
        }
      ],
      "stateMutability": "pure",
      "type": "function",
      "constant": true
    },
    {
      "inputs": [],
      "name": "proposalThreshold",
      "outputs": [
        {
          "internalType": "uint256",
          "name": "",
          "type": "uint256"
        }
      ],
      "stateMutability": "pure",
      "type": "function",
      "constant": true
    }
  ],
  "bytecode": "0x6101606040523480156200001257600080fd5b5060405162004916380380620049168339818101604052810190620000389190620003ef565b6004816040518060400160405280600d81526020017f5768616c65476f7665726e6f720000000000000000000000000000000000000081525080620000826200019d60201b60201c565b60008280519060200120905060008280519060200120905060007f8b73c3c69bb8fe3d512ecc4cf759cc79239f7b179b0ffacaa9a75d522b39400f90508260e081815250508161010081815250504660a08181525050620000eb818484620001da60201b60201c565b608081815250503073ffffffffffffffffffffffffffffffffffffffff1660c08173ffffffffffffffffffffffffffffffffffffffff1681525050806101208181525050505050505080600090805190602001906200014c929190620002c1565b50508073ffffffffffffffffffffffffffffffffffffffff166101408173ffffffffffffffffffffffffffffffffffffffff16815250505062000195816200021660201b60201c565b505062000626565b60606040518060400160405280600181526020017f3100000000000000000000000000000000000000000000000000000000000000815250905090565b60008383834630604051602001620001f795949392919062000468565b6040516020818303038152906040528051906020012090509392505050565b62000226620002b860201b60201c565b8111156200026b576040517f08c379a0000000000000000000000000000000000000000000000000000000008152600401620002629062000572565b60405180910390fd5b60006003549050816003819055507f0553476bf02ef2726e8ce5ced78d63e26e602e4a2257b1f559418e24b46339978183604051620002ac92919062000594565b60405180910390a15050565b60006064905090565b828054620002cf90620005f0565b90600052602060002090601f016020900481019282620002f357600085556200033f565b82601f106200030e57805160ff19168380011785556200033f565b828001600101855582156200033f579182015b828111156200033e57825182559160200191906001019062000321565b5b5090506200034e919062000352565b5090565b5b808211156200036d57600081600090555060010162000353565b5090565b600080fd5b600073ffffffffffffffffffffffffffffffffffffffff82169050919050565b6000620003a38262000376565b9050919050565b6000620003b78262000396565b9050919050565b620003c981620003aa565b8114620003d557600080fd5b50565b600081519050620003e981620003be565b92915050565b60006020828403121562000408576200040762000371565b5b60006200041884828501620003d8565b91505092915050565b6000819050919050565b620004368162000421565b82525050565b6000819050919050565b62000451816200043c565b82525050565b620004628162000396565b82525050565b600060a0820190506200047f60008301886200042b565b6200048e60208301876200042b565b6200049d60408301866200042b565b620004ac606083018562000446565b620004bb608083018462000457565b9695505050505050565b600082825260208201905092915050565b7f476f7665726e6f72566f74657351756f72756d4672616374696f6e3a2071756f60008201527f72756d4e756d657261746f72206f7665722071756f72756d44656e6f6d696e6160208201527f746f720000000000000000000000000000000000000000000000000000000000604082015250565b60006200055a604383620004c5565b91506200056782620004d6565b606082019050919050565b600060208201905081810360008301526200058d816200054b565b9050919050565b6000604082019050620005ab600083018562000446565b620005ba602083018462000446565b9392505050565b7f4e487b7100000000000000000000000000000000000000000000000000000000600052602260045260246000fd5b600060028204905060018216806200060957607f821691505b6020821081141562000620576200061f620005c1565b5b50919050565b60805160a05160c05160e0516101005161012051610140516142876200068f6000396000818161127d0152818161133301526113e801526000611a1d01526000611a5f01526000611a3e01526000611973015260006119c9015260006119f201526142876000f3fe6080604052600436106101855760003560e01c80637b3c71d3116100d1578063c28bc2fa1161008a578063deaaa7cc11610064578063deaaa7cc1461064b578063eb9019d414610676578063f8ce560a146106b3578063fc0c546a146106f0576101cb565b8063c28bc2fa146105ba578063c59057e4146105e3578063dd4e2ba514610620576101cb565b80637b3c71d3146104825780637d5e81e2146104bf57806397c3d334146104fc578063a7713a7014610527578063b58131b014610552578063c01f9e371461057d576101cb565b80633932abb11161013e5780634385963211610118578063438596321461039e578063544ffc9c146103db57806354fd4d501461041a5780635678138814610445576101cb565b80633932abb1146102f95780633bccf4fd146103245780633e4f49e614610361576101cb565b806301ffc9a7146101d057806302a251a31461020d57806306f3f9e61461023857806306fdde03146102615780632656227d1461028c5780632d63f693146102bc576101cb565b366101cb573073ffffffffffffffffffffffffffffffffffffffff166101a961071b565b73ffffffffffffffffffffffffffffffffffffffff16146101c957600080fd5b005b600080fd5b3480156101dc57600080fd5b506101f760048036038101906101f29190612181565b610723565b60405161020491906121c9565b60405180910390f35b34801561021957600080fd5b5061022261079d565b60405161022f91906121fd565b60405180910390f35b34801561024457600080fd5b5061025f600480360381019061025a9190612244565b6107a7565b005b34801561026d57600080fd5b5061027661082f565b604051610283919061230a565b60405180910390f35b6102a660048036038101906102a19190612761565b6108c1565b6040516102b391906121fd565b60405180910390f35b3480156102c857600080fd5b506102e360048036038101906102de9190612244565b6109f4565b6040516102f091906121fd565b60405180910390f35b34801561030557600080fd5b5061030e610a62565b60405161031b91906121fd565b60405180910390f35b34801561033057600080fd5b5061034b60048036038101906103469190612855565b610a6c565b60405161035891906121fd565b60405180910390f35b34801561036d57600080fd5b5061038860048036038101906103839190612244565b610af6565b6040516103959190612947565b60405180910390f35b3480156103aa57600080fd5b506103c560048036038101906103c09190612962565b610c0b565b6040516103d291906121c9565b60405180910390f35b3480156103e757600080fd5b5061040260048036038101906103fd9190612244565b610c76565b604051610411939291906129a2565b60405180910390f35b34801561042657600080fd5b5061042f610cae565b60405161043c919061230a565b60405180910390f35b34801561045157600080fd5b5061046c600480360381019061046791906129d9565b610ceb565b60405161047991906121fd565b60405180910390f35b34801561048e57600080fd5b506104a960048036038101906104a49190612a74565b610d1c565b6040516104b691906121fd565b60405180910390f35b3480156104cb57600080fd5b506104e660048036038101906104e19190612b89565b610d84565b6040516104f391906121fd565b60405180910390f35b34801561050857600080fd5b50610511611084565b60405161051e91906121fd565b60405180910390f35b34801561053357600080fd5b5061053c61108d565b60405161054991906121fd565b60405180910390f35b34801561055e57600080fd5b50610567611097565b60405161057491906121fd565b60405180910390f35b34801561058957600080fd5b506105a4600480360381019061059f9190612244565b61109c565b6040516105b191906121fd565b60405180910390f35b3480156105c657600080fd5b506105e160048036038101906105dc9190612cb6565b61110a565b005b3480156105ef57600080fd5b5061060a60048036038101906106059190612761565b6111dc565b60405161061791906121fd565b60405180910390f35b34801561062c57600080fd5b50610635611218565b604051610642919061230a565b60405180910390f35b34801561065757600080fd5b50610660611255565b60405161066d9190612d39565b60405180910390f35b34801561068257600080fd5b5061069d60048036038101906106989190612d54565b611279565b6040516106aa91906121fd565b60405180910390f35b3480156106bf57600080fd5b506106da60048036038101906106d59190612244565b61131f565b6040516106e791906121fd565b60405180910390f35b3480156106fc57600080fd5b506107056113e6565b6040516107129190612df3565b60405180910390f35b600030905090565b60007fbf26d897000000000000000000000000000000000000000000000000000000007bffffffffffffffffffffffffffffffffffffffffffffffffffffffff1916827bffffffffffffffffffffffffffffffffffffffffffffffffffffffff1916148061079657506107958261140a565b5b9050919050565b600061b3cb905090565b6107af61071b565b73ffffffffffffffffffffffffffffffffffffffff166107cd611474565b73ffffffffffffffffffffffffffffffffffffffff1614610823576040517f08c379a000000000000000000000000000000000000000000000000000000000815260040161081a90612e5a565b60405180910390fd5b61082c8161147c565b50565b60606000805461083e90612ea9565b80601f016020809104026020016040519081016040528092919081815260200182805461086a90612ea9565b80156108b75780601f1061088c576101008083540402835291602001916108b7565b820191906000526020600020905b81548152906001019060200180831161089a57829003601f168201915b5050505050905090565b6000806108d0868686866111dc565b905060006108dd82610af6565b9050600460078111156108f3576108f26128d0565b5b816007811115610906576109056128d0565b5b1480610936575060056007811115610921576109206128d0565b5b816007811115610934576109336128d0565b5b145b610975576040517f08c379a000000000000000000000000000000000000000000000000000000000815260040161096c90612f4d565b60405180910390fd5b600180600084815260200190815260200160002060020160006101000a81548160ff0219169083151502179055507f712ae1383f79ac853f8d882153778e0260ef8f03b504e2866e0593e04d2b291f826040516109d291906121fd565b60405180910390a16109e78288888888611511565b8192505050949350505050565b6000610a51600160008481526020019081526020016000206000016040518060200160405290816000820160009054906101000a900467ffffffffffffffff1667ffffffffffffffff1667ffffffffffffffff1681525050611620565b67ffffffffffffffff169050919050565b60006119af905090565b600080610acd610ac57f150214d74d59b7d1e90c73fc22ef3d991dd0a76b046543d4d80ab92d2a50328f8989604051602001610aaa93929190612f7c565b6040516020818303038152906040528051906020012061162e565b868686611648565b9050610aea87828860405180602001604052806000815250611673565b91505095945050505050565b6000806001600084815260200190815260200160002090508060020160009054906101000a900460ff1615610b2f576007915050610c06565b8060020160019054906101000a900460ff1615610b50576002915050610c06565b6000610b5b846109f4565b90506000811415610ba1576040517f08c379a0000000000000000000000000000000000000000000000000000000008152600401610b9890612fff565b60405180910390fd5b438110610bb357600092505050610c06565b6000610bbe8561109c565b9050438110610bd35760019350505050610c06565b610bdc856117c7565b8015610bed5750610bec8561180e565b5b15610bfe5760049350505050610c06565b600393505050505b919050565b60006002600084815260200190815260200160002060030160008373ffffffffffffffffffffffffffffffffffffffff1673ffffffffffffffffffffffffffffffffffffffff16815260200190815260200160002060009054906101000a900460ff16905092915050565b600080600080600260008681526020019081526020016000209050806000015481600101548260020154935093509350509193909250565b60606040518060400160405280600181526020017f3100000000000000000000000000000000000000000000000000000000000000815250905090565b600080610cf6611474565b9050610d1384828560405180602001604052806000815250611673565b91505092915050565b600080610d27611474565b9050610d7986828787878080601f016020809104026020016040519081016040528093929190818152602001838380828437600081840152601f19601f82011690508083019250505050505050611673565b915050949350505050565b6000610d8e611097565b610da433600143610d9f919061304e565b611279565b1015610de5576040517f08c379a0000000000000000000000000000000000000000000000000000000008152600401610ddc9061311a565b60405180910390fd5b6000610dfa86868686805190602001206111dc565b90508451865114610e40576040517f08c379a0000000000000000000000000000000000000000000000000000000008152600401610e37906131ac565b60405180910390fd5b8351865114610e84576040517f08c379a0000000000000000000000000000000000000000000000000000000008152600401610e7b906131ac565b60405180910390fd5b6000865111610ec8576040517f08c379a0000000000000000000000000000000000000000000000000000000008152600401610ebf90613218565b60405180910390fd5b6000600160008381526020019081526020016000209050610f28816000016040518060200160405290816000820160009054906101000a900467ffffffffffffffff1667ffffffffffffffff1667ffffffffffffffff1681525050611839565b610f67576040517f08c379a0000000000000000000000000000000000000000000000000000000008152600401610f5e906132aa565b60405180910390fd5b6000610f79610f74610a62565b611853565b610f8243611853565b610f8c91906132de565b90506000610fa0610f9b61079d565b611853565b82610fab91906132de565b9050610fc382846000016118aa90919063ffffffff16565b610fd981846001016118aa90919063ffffffff16565b7f7d84a6263ae0d98d3329bd7b46bb4e8d6f98cd35a7adb45c274c8b7fd5ebd5e084611003611474565b8b8b8d5167ffffffffffffffff8111156110205761101f612331565b5b60405190808252806020026020018201604052801561105357816020015b606081526020019060019003908161103e5790505b508c88888e60405161106d999897969594939291906136fb565b60405180910390a183945050505050949350505050565b60006064905090565b6000600354905090565b600090565b60006110f9600160008481526020019081526020016000206001016040518060200160405290816000820160009054906101000a900467ffffffffffffffff1667ffffffffffffffff1667ffffffffffffffff1681525050611620565b67ffffffffffffffff169050919050565b61111261071b565b73ffffffffffffffffffffffffffffffffffffffff16611130611474565b73ffffffffffffffffffffffffffffffffffffffff1614611186576040517f08c379a000000000000000000000000000000000000000000000000000000000815260040161117d90612e5a565b60405180910390fd5b6111d58483838080601f016020809104026020016040519081016040528093929190818152602001838380828437600081840152601f19601f82011690508083019250505050505050856118d9565b5050505050565b6000848484846040516020016111f594939291906137ab565b6040516020818303038152906040528051906020012060001c9050949350505050565b60606040518060400160405280602081526020017f737570706f72743d627261766f2671756f72756d3d666f722c6162737461696e815250905090565b7f150214d74d59b7d1e90c73fc22ef3d991dd0a76b046543d4d80ab92d2a50328f81565b60007f000000000000000000000000000000000000000000000000000000000000000073ffffffffffffffffffffffffffffffffffffffff16633a46b1a884846040518363ffffffff1660e01b81526004016112d6929190613805565b602060405180830381865afa1580156112f3573d6000803e3d6000fd5b505050506040513d601f19601f820116820180604052508101906113179190613843565b905092915050565b6000611329611084565b61133161108d565b7f000000000000000000000000000000000000000000000000000000000000000073ffffffffffffffffffffffffffffffffffffffff16638e539e8c856040518263ffffffff1660e01b815260040161138a91906121fd565b602060405180830381865afa1580156113a7573d6000803e3d6000fd5b505050506040513d601f19601f820116820180604052508101906113cb9190613843565b6113d59190613870565b6113df91906138f9565b9050919050565b7f000000000000000000000000000000000000000000000000000000000000000081565b60007f01ffc9a7000000000000000000000000000000000000000000000000000000007bffffffffffffffffffffffffffffffffffffffffffffffffffffffff1916827bffffffffffffffffffffffffffffffffffffffffffffffffffffffff1916149050919050565b600033905090565b611484611084565b8111156114c6576040517f08c379a00000000000000000000000000000000000000000000000000000000081526004016114bd906139c2565b60405180910390fd5b60006003549050816003819055507f0553476bf02ef2726e8ce5ced78d63e26e602e4a2257b1f559418e24b463399781836040516115059291906139e2565b60405180910390a15050565b600060405180606001604052806027815260200161420260279139905060005b8551811015611617576000808783815181106115505761154f613a0b565b5b602002602001015173ffffffffffffffffffffffffffffffffffffffff1687848151811061158157611580613a0b565b5b602002602001015187858151811061159c5761159b613a0b565b5b60200260200101516040516115b19190613a76565b60006040518083038185875af1925050503d80600081146115ee576040519150601f19603f3d011682016040523d82523d6000602084013e6115f3565b606091505b5091509150611603828286611908565b5050508061161090613a8d565b9050611531565b50505050505050565b600081600001519050919050565b600061164161163b61196f565b83611a89565b9050919050565b600080600061165987878787611abc565b9150915061166681611bc9565b8192505050949350505050565b6000806001600087815260200190815260200160002090506001600781111561169f5761169e6128d0565b5b6116a887610af6565b60078111156116ba576116b96128d0565b5b146116fa576040517f08c379a00000000000000000000000000000000000000000000000000000000081526004016116f190613b48565b60405180910390fd5b600061175886611749846000016040518060200160405290816000820160009054906101000a900467ffffffffffffffff1667ffffffffffffffff1667ffffffffffffffff1681525050611620565b67ffffffffffffffff16611279565b905061176687878784611d9e565b8573ffffffffffffffffffffffffffffffffffffffff167fb8e138887d0aa13bab447e82de9d5c1777041ecd21ca36ba824ff1e6c07ddda4888784886040516117b29493929190613b68565b60405180910390a28092505050949350505050565b600080600260008481526020019081526020016000209050806002015481600101546117f39190613bb4565b6118046117ff856109f4565b61131f565b1115915050919050565b6000806002600084815260200190815260200160002090508060000154816001015411915050919050565b600080826000015167ffffffffffffffff16149050919050565b600067ffffffffffffffff80168211156118a2576040517f08c379a000000000000000000000000000000000000000000000000000000000815260040161189990613c7c565b60405180910390fd5b819050919050565b808260000160006101000a81548167ffffffffffffffff021916908367ffffffffffffffff1602179055505050565b60606118ff84848460405180606001604052806029815260200161422960299139611fa4565b90509392505050565b6060831561191857829050611968565b60008351111561192b5782518084602001fd5b816040517f08c379a000000000000000000000000000000000000000000000000000000000815260040161195f919061230a565b60405180910390fd5b9392505050565b60007f000000000000000000000000000000000000000000000000000000000000000073ffffffffffffffffffffffffffffffffffffffff163073ffffffffffffffffffffffffffffffffffffffff161480156119eb57507f000000000000000000000000000000000000000000000000000000000000000046145b15611a18577f00000000000000000000000000000000000000000000000000000000000000009050611a86565b611a837f00000000000000000000000000000000000000000000000000000000000000007f00000000000000000000000000000000000000000000000000000000000000007f00000000000000000000000000000000000000000000000000000000000000006120b8565b90505b90565b60008282604051602001611a9e929190613d14565b60405160208183030381529060405280519060200120905092915050565b6000807f7fffffffffffffffffffffffffffffff5d576e7357a4501ddfe92f46681b20a08360001c1115611af7576000600391509150611bc0565b601b8560ff1614158015611b0f5750601c8560ff1614155b15611b21576000600491509150611bc0565b600060018787878760405160008152602001604052604051611b469493929190613d4b565b6020604051602081039080840390855afa158015611b68573d6000803e3d6000fd5b505050602060405103519050600073ffffffffffffffffffffffffffffffffffffffff168173ffffffffffffffffffffffffffffffffffffffff161415611bb757600060019250925050611bc0565b80600092509250505b94509492505050565b60006004811115611bdd57611bdc6128d0565b5b816004811115611bf057611bef6128d0565b5b1415611bfb57611d9b565b60016004811115611c0f57611c0e6128d0565b5b816004811115611c2257611c216128d0565b5b1415611c63576040517f08c379a0000000000000000000000000000000000000000000000000000000008152600401611c5a90613ddc565b60405180910390fd5b60026004811115611c7757611c766128d0565b5b816004811115611c8a57611c896128d0565b5b1415611ccb576040517f08c379a0000000000000000000000000000000000000000000000000000000008152600401611cc290613e48565b60405180910390fd5b60036004811115611cdf57611cde6128d0565b5b816004811115611cf257611cf16128d0565b5b1415611d33576040517f08c379a0000000000000000000000000000000000000000000000000000000008152600401611d2a90613eda565b60405180910390fd5b600480811115611d4657611d456128d0565b5b816004811115611d5957611d586128d0565b5b1415611d9a576040517f08c379a0000000000000000000000000000000000000000000000000000000008152600401611d9190613f6c565b60405180910390fd5b5b50565b60006002600086815260200190815260200160002090508060030160008573ffffffffffffffffffffffffffffffffffffffff1673ffffffffffffffffffffffffffffffffffffffff16815260200190815260200160002060009054906101000a900460ff1615611e44576040517f08c379a0000000000000000000000000000000000000000000000000000000008152600401611e3b90613ffe565b60405180910390fd5b60018160030160008673ffffffffffffffffffffffffffffffffffffffff1673ffffffffffffffffffffffffffffffffffffffff16815260200190815260200160002060006101000a81548160ff02191690831515021790555060006002811115611eb257611eb16128d0565b5b60ff168360ff161415611edf5781816000016000828254611ed39190613bb4565b92505081905550611f9d565b60016002811115611ef357611ef26128d0565b5b60ff168360ff161415611f205781816001016000828254611f149190613bb4565b92505081905550611f9c565b600280811115611f3357611f326128d0565b5b60ff168360ff161415611f605781816002016000828254611f549190613bb4565b92505081905550611f9b565b6040517f08c379a0000000000000000000000000000000000000000000000000000000008152600401611f9290614090565b60405180910390fd5b5b5b5050505050565b606082471015611fe9576040517f08c379a0000000000000000000000000000000000000000000000000000000008152600401611fe090614122565b60405180910390fd5b611ff2856120f2565b612031576040517f08c379a00000000000000000000000000000000000000000000000000000000081526004016120289061418e565b60405180910390fd5b6000808673ffffffffffffffffffffffffffffffffffffffff16858760405161205a9190613a76565b60006040518083038185875af1925050503d8060008114612097576040519150601f19603f3d011682016040523d82523d6000602084013e61209c565b606091505b50915091506120ac828286611908565b92505050949350505050565b600083838346306040516020016120d39594939291906141ae565b6040516020818303038152906040528051906020012090509392505050565b6000808273ffffffffffffffffffffffffffffffffffffffff163b119050919050565b6000604051905090565b600080fd5b600080fd5b60007fffffffff0000000000000000000000000000000000000000000000000000000082169050919050565b61215e81612129565b811461216957600080fd5b50565b60008135905061217b81612155565b92915050565b6000602082840312156121975761219661211f565b5b60006121a58482850161216c565b91505092915050565b60008115159050919050565b6121c3816121ae565b82525050565b60006020820190506121de60008301846121ba565b92915050565b6000819050919050565b6121f7816121e4565b82525050565b600060208201905061221260008301846121ee565b92915050565b612221816121e4565b811461222c57600080fd5b50565b60008135905061223e81612218565b92915050565b60006020828403121561225a5761225961211f565b5b60006122688482850161222f565b91505092915050565b600081519050919050565b600082825260208201905092915050565b60005b838110156122ab578082015181840152602081019050612290565b838111156122ba576000848401525b50505050565b6000601f19601f8301169050919050565b60006122dc82612271565b6122e6818561227c565b93506122f681856020860161228d565b6122ff816122c0565b840191505092915050565b6000602082019050818103600083015261232481846122d1565b905092915050565b600080fd5b7f4e487b7100000000000000000000000000000000000000000000000000000000600052604160045260246000fd5b612369826122c0565b810181811067ffffffffffffffff8211171561238857612387612331565b5b80604052505050565b600061239b612115565b90506123a78282612360565b919050565b600067ffffffffffffffff8211156123c7576123c6612331565b5b602082029050602081019050919050565b600080fd5b600073ffffffffffffffffffffffffffffffffffffffff82169050919050565b6000612408826123dd565b9050919050565b612418816123fd565b811461242357600080fd5b50565b6000813590506124358161240f565b92915050565b600061244e612449846123ac565b612391565b90508083825260208201905060208402830185811115612471576124706123d8565b5b835b8181101561249a57806124868882612426565b845260208401935050602081019050612473565b5050509392505050565b600082601f8301126124b9576124b861232c565b5b81356124c984826020860161243b565b91505092915050565b600067ffffffffffffffff8211156124ed576124ec612331565b5b602082029050602081019050919050565b600061251161250c846124d2565b612391565b90508083825260208201905060208402830185811115612534576125336123d8565b5b835b8181101561255d5780612549888261222f565b845260208401935050602081019050612536565b5050509392505050565b600082601f83011261257c5761257b61232c565b5b813561258c8482602086016124fe565b91505092915050565b600067ffffffffffffffff8211156125b0576125af612331565b5b602082029050602081019050919050565b600080fd5b600067ffffffffffffffff8211156125e1576125e0612331565b5b6125ea826122c0565b9050602081019050919050565b82818337600083830152505050565b6000612619612614846125c6565b612391565b905082815260208101848484011115612635576126346125c1565b5b6126408482856125f7565b509392505050565b600082601f83011261265d5761265c61232c565b5b813561266d848260208601612606565b91505092915050565b600061268961268484612595565b612391565b905080838252602082019050602084028301858111156126ac576126ab6123d8565b5b835b818110156126f357803567ffffffffffffffff8111156126d1576126d061232c565b5b8086016126de8982612648565b855260208501945050506020810190506126ae565b5050509392505050565b600082601f8301126127125761271161232c565b5b8135612722848260208601612676565b91505092915050565b6000819050919050565b61273e8161272b565b811461274957600080fd5b50565b60008135905061275b81612735565b92915050565b6000806000806080858703121561277b5761277a61211f565b5b600085013567ffffffffffffffff81111561279957612798612124565b5b6127a5878288016124a4565b945050602085013567ffffffffffffffff8111156127c6576127c5612124565b5b6127d287828801612567565b935050604085013567ffffffffffffffff8111156127f3576127f2612124565b5b6127ff878288016126fd565b92505060606128108782880161274c565b91505092959194509250565b600060ff82169050919050565b6128328161281c565b811461283d57600080fd5b50565b60008135905061284f81612829565b92915050565b600080600080600060a086880312156128715761287061211f565b5b600061287f8882890161222f565b955050602061289088828901612840565b94505060406128a188828901612840565b93505060606128b28882890161274c565b92505060806128c38882890161274c565b9150509295509295909350565b7f4e487b7100000000000000000000000000000000000000000000000000000000600052602160045260246000fd5b600881106129105761290f6128d0565b5b50565b6000819050612921826128ff565b919050565b600061293182612913565b9050919050565b61294181612926565b82525050565b600060208201905061295c6000830184612938565b92915050565b600080604083850312156129795761297861211f565b5b60006129878582860161222f565b925050602061299885828601612426565b9150509250929050565b60006060820190506129b760008301866121ee565b6129c460208301856121ee565b6129d160408301846121ee565b949350505050565b600080604083850312156129f0576129ef61211f565b5b60006129fe8582860161222f565b9250506020612a0f85828601612840565b9150509250929050565b600080fd5b60008083601f840112612a3457612a3361232c565b5b8235905067ffffffffffffffff811115612a5157612a50612a19565b5b602083019150836001820283011115612a6d57612a6c6123d8565b5b9250929050565b60008060008060608587031215612a8e57612a8d61211f565b5b6000612a9c8782880161222f565b9450506020612aad87828801612840565b935050604085013567ffffffffffffffff811115612ace57612acd612124565b5b612ada87828801612a1e565b925092505092959194509250565b600067ffffffffffffffff821115612b0357612b02612331565b5b612b0c826122c0565b9050602081019050919050565b6000612b2c612b2784612ae8565b612391565b905082815260208101848484011115612b4857612b476125c1565b5b612b538482856125f7565b509392505050565b600082601f830112612b7057612b6f61232c565b5b8135612b80848260208601612b19565b91505092915050565b60008060008060808587031215612ba357612ba261211f565b5b600085013567ffffffffffffffff811115612bc157612bc0612124565b5b612bcd878288016124a4565b945050602085013567ffffffffffffffff811115612bee57612bed612124565b5b612bfa87828801612567565b935050604085013567ffffffffffffffff811115612c1b57612c1a612124565b5b612c27878288016126fd565b925050606085013567ffffffffffffffff811115612c4857612c47612124565b5b612c5487828801612b5b565b91505092959194509250565b60008083601f840112612c7657612c7561232c565b5b8235905067ffffffffffffffff811115612c9357612c92612a19565b5b602083019150836001820283011115612caf57612cae6123d8565b5b9250929050565b60008060008060608587031215612cd057612ccf61211f565b5b6000612cde87828801612426565b9450506020612cef8782880161222f565b935050604085013567ffffffffffffffff811115612d1057612d0f612124565b5b612d1c87828801612c60565b925092505092959194509250565b612d338161272b565b82525050565b6000602082019050612d4e6000830184612d2a565b92915050565b60008060408385031215612d6b57612d6a61211f565b5b6000612d7985828601612426565b9250506020612d8a8582860161222f565b9150509250929050565b6000819050919050565b6000612db9612db4612daf846123dd565b612d94565b6123dd565b9050919050565b6000612dcb82612d9e565b9050919050565b6000612ddd82612dc0565b9050919050565b612ded81612dd2565b82525050565b6000602082019050612e086000830184612de4565b92915050565b7f476f7665726e6f723a206f6e6c79476f7665726e616e63650000000000000000600082015250565b6000612e4460188361227c565b9150612e4f82612e0e565b602082019050919050565b60006020820190508181036000830152612e7381612e37565b9050919050565b7f4e487b7100000000000000000000000000000000000000000000000000000000600052602260045260246000fd5b60006002820490506001821680612ec157607f821691505b60208210811415612ed557612ed4612e7a565b5b50919050565b7f476f7665726e6f723a2070726f706f73616c206e6f742073756363657373667560008201527f6c00000000000000000000000000000000000000000000000000000000000000602082015250565b6000612f3760218361227c565b9150612f4282612edb565b604082019050919050565b60006020820190508181036000830152612f6681612f2a565b9050919050565b612f768161281c565b82525050565b6000606082019050612f916000830186612d2a565b612f9e60208301856121ee565b612fab6040830184612f6d565b949350505050565b7f476f7665726e6f723a20756e6b6e6f776e2070726f706f73616c206964000000600082015250565b6000612fe9601d8361227c565b9150612ff482612fb3565b602082019050919050565b6000602082019050818103600083015261301881612fdc565b9050919050565b7f4e487b7100000000000000000000000000000000000000000000000000000000600052601160045260246000fd5b6000613059826121e4565b9150613064836121e4565b9250828210156130775761307661301f565b5b828203905092915050565b7f476f7665726e6f72436f6d7061746962696c697479427261766f3a2070726f7060008201527f6f73657220766f7465732062656c6f772070726f706f73616c2074687265736860208201527f6f6c640000000000000000000000000000000000000000000000000000000000604082015250565b600061310460438361227c565b915061310f82613082565b606082019050919050565b60006020820190508181036000830152613133816130f7565b9050919050565b7f476f7665726e6f723a20696e76616c69642070726f706f73616c206c656e677460008201527f6800000000000000000000000000000000000000000000000000000000000000602082015250565b600061319660218361227c565b91506131a18261313a565b604082019050919050565b600060208201905081810360008301526131c581613189565b9050919050565b7f476f7665726e6f723a20656d7074792070726f706f73616c0000000000000000600082015250565b600061320260188361227c565b915061320d826131cc565b602082019050919050565b60006020820190508181036000830152613231816131f5565b9050919050565b7f476f7665726e6f723a2070726f706f73616c20616c726561647920657869737460008201527f7300000000000000000000000000000000000000000000000000000000000000602082015250565b600061329460218361227c565b915061329f82613238565b604082019050919050565b600060208201905081810360008301526132c381613287565b9050919050565b600067ffffffffffffffff82169050919050565b60006132e9826132ca565b91506132f4836132ca565b92508267ffffffffffffffff038211156133115761331061301f565b5b828201905092915050565b613325816123fd565b82525050565b600081519050919050565b600082825260208201905092915050565b6000819050602082019050919050565b613360816123fd565b82525050565b60006133728383613357565b60208301905092915050565b6000602082019050919050565b60006133968261332b565b6133a08185613336565b93506133ab83613347565b8060005b838110156133dc5781516133c38882613366565b97506133ce8361337e565b9250506001810190506133af565b5085935050505092915050565b600081519050919050565b600082825260208201905092915050565b6000819050602082019050919050565b61341e816121e4565b82525050565b60006134308383613415565b60208301905092915050565b6000602082019050919050565b6000613454826133e9565b61345e81856133f4565b935061346983613405565b8060005b8381101561349a5781516134818882613424565b975061348c8361343c565b92505060018101905061346d565b5085935050505092915050565b600081519050919050565b600082825260208201905092915050565b6000819050602082019050919050565b600082825260208201905092915050565b60006134ef82612271565b6134f981856134d3565b935061350981856020860161228d565b613512816122c0565b840191505092915050565b600061352983836134e4565b905092915050565b6000602082019050919050565b6000613549826134a7565b61355381856134b2565b935083602082028501613565856134c3565b8060005b858110156135a15784840389528151613582858261351d565b945061358d83613531565b925060208a01995050600181019050613569565b50829750879550505050505092915050565b600081519050919050565b600082825260208201905092915050565b6000819050602082019050919050565b600081519050919050565b600082825260208201905092915050565b6000613606826135df565b61361081856135ea565b935061362081856020860161228d565b613629816122c0565b840191505092915050565b600061364083836135fb565b905092915050565b6000602082019050919050565b6000613660826135b3565b61366a81856135be565b93508360208202850161367c856135cf565b8060005b858110156136b857848403895281516136998582613634565b94506136a483613648565b925060208a01995050600181019050613680565b50829750879550505050505092915050565b60006136e56136e06136db846132ca565b612d94565b6121e4565b9050919050565b6136f5816136ca565b82525050565b600061012082019050613711600083018c6121ee565b61371e602083018b61331c565b8181036040830152613730818a61338b565b905081810360608301526137448189613449565b90508181036080830152613758818861353e565b905081810360a083015261376c8187613655565b905061377b60c08301866136ec565b61378860e08301856136ec565b81810361010083015261379b81846122d1565b90509a9950505050505050505050565b600060808201905081810360008301526137c5818761338b565b905081810360208301526137d98186613449565b905081810360408301526137ed8185613655565b90506137fc6060830184612d2a565b95945050505050565b600060408201905061381a600083018561331c565b61382760208301846121ee565b9392505050565b60008151905061383d81612218565b92915050565b6000602082840312156138595761385861211f565b5b60006138678482850161382e565b91505092915050565b600061387b826121e4565b9150613886836121e4565b9250817fffffffffffffffffffffffffffffffffffffffffffffffffffffffffffffffff04831182151516156138bf576138be61301f565b5b828202905092915050565b7f4e487b7100000000000000000000000000000000000000000000000000000000600052601260045260246000fd5b6000613904826121e4565b915061390f836121e4565b92508261391f5761391e6138ca565b5b828204905092915050565b7f476f7665726e6f72566f74657351756f72756d4672616374696f6e3a2071756f60008201527f72756d4e756d657261746f72206f7665722071756f72756d44656e6f6d696e6160208201527f746f720000000000000000000000000000000000000000000000000000000000604082015250565b60006139ac60438361227c565b91506139b78261392a565b606082019050919050565b600060208201905081810360008301526139db8161399f565b9050919050565b60006040820190506139f760008301856121ee565b613a0460208301846121ee565b9392505050565b7f4e487b7100000000000000000000000000000000000000000000000000000000600052603260045260246000fd5b600081905092915050565b6000613a50826135df565b613a5a8185613a3a565b9350613a6a81856020860161228d565b80840191505092915050565b6000613a828284613a45565b915081905092915050565b6000613a98826121e4565b91507fffffffffffffffffffffffffffffffffffffffffffffffffffffffffffffffff821415613acb57613aca61301f565b5b600182019050919050565b7f476f7665726e6f723a20766f7465206e6f742063757272656e746c792061637460008201527f6976650000000000000000000000000000000000000000000000000000000000602082015250565b6000613b3260238361227c565b9150613b3d82613ad6565b604082019050919050565b60006020820190508181036000830152613b6181613b25565b9050919050565b6000608082019050613b7d60008301876121ee565b613b8a6020830186612f6d565b613b9760408301856121ee565b8181036060830152613ba981846122d1565b905095945050505050565b6000613bbf826121e4565b9150613bca836121e4565b9250827fffffffffffffffffffffffffffffffffffffffffffffffffffffffffffffffff03821115613bff57613bfe61301f565b5b828201905092915050565b7f53616665436173743a2076616c756520646f65736e27742066697420696e203660008201527f3420626974730000000000000000000000000000000000000000000000000000602082015250565b6000613c6660268361227c565b9150613c7182613c0a565b604082019050919050565b60006020820190508181036000830152613c9581613c59565b9050919050565b600081905092915050565b7f1901000000000000000000000000000000000000000000000000000000000000600082015250565b6000613cdd600283613c9c565b9150613ce882613ca7565b600282019050919050565b6000819050919050565b613d0e613d098261272b565b613cf3565b82525050565b6000613d1f82613cd0565b9150613d2b8285613cfd565b602082019150613d3b8284613cfd565b6020820191508190509392505050565b6000608082019050613d606000830187612d2a565b613d6d6020830186612f6d565b613d7a6040830185612d2a565b613d876060830184612d2a565b95945050505050565b7f45434453413a20696e76616c6964207369676e61747572650000000000000000600082015250565b6000613dc660188361227c565b9150613dd182613d90565b602082019050919050565b60006020820190508181036000830152613df581613db9565b9050919050565b7f45434453413a20696e76616c6964207369676e6174757265206c656e67746800600082015250565b6000613e32601f8361227c565b9150613e3d82613dfc565b602082019050919050565b60006020820190508181036000830152613e6181613e25565b9050919050565b7f45434453413a20696e76616c6964207369676e6174757265202773272076616c60008201527f7565000000000000000000000000000000000000000000000000000000000000602082015250565b6000613ec460228361227c565b9150613ecf82613e68565b604082019050919050565b60006020820190508181036000830152613ef381613eb7565b9050919050565b7f45434453413a20696e76616c6964207369676e6174757265202776272076616c60008201527f7565000000000000000000000000000000000000000000000000000000000000602082015250565b6000613f5660228361227c565b9150613f6182613efa565b604082019050919050565b60006020820190508181036000830152613f8581613f49565b9050919050565b7f476f7665726e6f72566f74696e6753696d706c653a20766f746520616c72656160008201527f6479206361737400000000000000000000000000000000000000000000000000602082015250565b6000613fe860278361227c565b9150613ff382613f8c565b604082019050919050565b6000602082019050818103600083015261401781613fdb565b9050919050565b7f476f7665726e6f72566f74696e6753696d706c653a20696e76616c696420766160008201527f6c756520666f7220656e756d20566f7465547970650000000000000000000000602082015250565b600061407a60358361227c565b91506140858261401e565b604082019050919050565b600060208201905081810360008301526140a98161406d565b9050919050565b7f416464726573733a20696e73756666696369656e742062616c616e636520666f60008201527f722063616c6c0000000000000000000000000000000000000000000000000000602082015250565b600061410c60268361227c565b9150614117826140b0565b604082019050919050565b6000602082019050818103600083015261413b816140ff565b9050919050565b7f416464726573733a2063616c6c20746f206e6f6e2d636f6e7472616374000000600082015250565b6000614178601d8361227c565b915061418382614142565b602082019050919050565b600060208201905081810360008301526141a78161416b565b9050919050565b600060a0820190506141c36000830188612d2a565b6141d06020830187612d2a565b6141dd6040830186612d2a565b6141ea60608301856121ee565b6141f7608083018461331c565b969550505050505056fe476f7665726e6f723a2063616c6c20726576657274656420776974686f7574206d657373616765416464726573733a206c6f772d6c6576656c2063616c6c20776974682076616c7565206661696c6564a2646970667358221220f65ed7d677fca04bfb689886407afe9021428ee110e1c8d4d851300df555108764736f6c634300080c0033",
  "immutableReferences": {
    "3794": [
      {
        "length": 32,
        "start": 4733
      },
      {
        "length": 32,
        "start": 4915
      },
      {
        "length": 32,
        "start": 5096
      }
    ],
    "6804": [
      {
        "length": 32,
        "start": 6642
      }
    ],
    "6806": [
      {
        "length": 32,
        "start": 6601
      }
    ],
    "6808": [
      {
        "length": 32,
        "start": 6515
      }
    ],
    "6810": [
      {
        "length": 32,
        "start": 6718
      }
    ],
    "6812": [
      {
        "length": 32,
        "start": 6751
      }
    ],
    "6814": [
      {
        "length": 32,
        "start": 6685
      }
    ]
  },
  "source": "// SPDX-License-Identifier: MIT\r\npragma solidity ^0.8.0;\r\n\r\nimport \"@openzeppelin/contracts/governance/Governor.sol\";\r\nimport \"@openzeppelin/contracts/governance/compatibility/GovernorCompatibilityBravo.sol\";\r\nimport \"@openzeppelin/contracts/governance/extensions/GovernorVotes.sol\";\r\nimport \"@openzeppelin/contracts/governance/extensions/GovernorCountingSimple.sol\";\r\nimport \"@openzeppelin/contracts/governance/extensions/GovernorVotesQuorumFraction.sol\";\r\nimport \"@openzeppelin/contracts/governance/extensions/GovernorTimelockControl.sol\";\r\n\r\n/// Governor that takes 1 vote per palm holder\r\ncontract PeoplesGovernor is Governor, GovernorCountingSimple, GovernorVotes, GovernorVotesQuorumFraction{\r\n    constructor(IVotes _token)\r\n        Governor(\"WhaleGovernor\")\r\n        GovernorVotes(_token)\r\n        GovernorVotesQuorumFraction(4)\r\n    {}\r\n\r\n    function votingDelay() public pure override returns (uint256) {\r\n        return 6575; // 1 day\r\n    }\r\n\r\n    function votingPeriod() public pure override returns (uint256) {\r\n        return 46027; // 1 week\r\n    }\r\n\r\n    function proposalThreshold() public pure override returns (uint256) {\r\n        return 0;\r\n    }\r\n\r\n}",
  "sourcePath": "C:\\Users\\Nene\\Documents\\palm\\contracts\\governance\\PeoplesGovernor.sol",
  "compiler": {
    "name": "solc",
    "version": "0.8.12+commit.f00d7308.Emscripten.clang"
  },
  "schemaVersion": "3.4.5",
  "updatedAt": "2022-03-05T06:07:08.925Z",
  "networkType": "ethereum",
  "devdoc": {
    "kind": "dev",
    "methods": {
      "COUNTING_MODE()": {
        "details": "See {IGovernor-COUNTING_MODE}."
      },
      "castVote(uint256,uint8)": {
        "details": "See {IGovernor-castVote}."
      },
      "castVoteBySig(uint256,uint8,uint8,bytes32,bytes32)": {
        "details": "See {IGovernor-castVoteBySig}."
      },
      "castVoteWithReason(uint256,uint8,string)": {
        "details": "See {IGovernor-castVoteWithReason}."
      },
      "execute(address[],uint256[],bytes[],bytes32)": {
        "details": "See {IGovernor-execute}."
      },
      "hasVoted(uint256,address)": {
        "details": "See {IGovernor-hasVoted}."
      },
      "hashProposal(address[],uint256[],bytes[],bytes32)": {
        "details": "See {IGovernor-hashProposal}. The proposal id is produced by hashing the RLC encoded `targets` array, the `values` array, the `calldatas` array and the descriptionHash (bytes32 which itself is the keccak256 hash of the description string). This proposal id can be produced from the proposal data which is part of the {ProposalCreated} event. It can even be computed in advance, before the proposal is submitted. Note that the chainId and the governor address are not part of the proposal id computation. Consequently, the same proposal (with same operation and same description) will have the same id if submitted on multiple governors accross multiple networks. This also means that in order to execute the same operation twice (on the same governor) the proposer will have to change the description in order to avoid proposal id conflicts."
      },
      "name()": {
        "details": "See {IGovernor-name}."
      },
      "proposalDeadline(uint256)": {
        "details": "See {IGovernor-proposalDeadline}."
      },
      "proposalSnapshot(uint256)": {
        "details": "See {IGovernor-proposalSnapshot}."
      },
      "proposalThreshold()": {
        "details": "Part of the Governor Bravo's interface: _\"The number of votes required in order for a voter to become a proposer\"_."
      },
      "proposalVotes(uint256)": {
        "details": "Accessor to the internal vote counts."
      },
      "propose(address[],uint256[],bytes[],string)": {
        "details": "See {IGovernor-propose}."
      },
      "quorum(uint256)": {
        "details": "Returns the quorum for a block number, in terms of number of votes: `supply * numerator / denominator`."
      },
      "quorumDenominator()": {
        "details": "Returns the quorum denominator. Defaults to 100, but may be overridden."
      },
      "quorumNumerator()": {
        "details": "Returns the current quorum numerator. See {quorumDenominator}."
      },
      "relay(address,uint256,bytes)": {
        "details": "Relays a transaction or function call to an arbitrary target. In cases where the governance executor is some contract other than the governor itself, like when using a timelock, this function can be invoked in a governance proposal to recover tokens or Ether that was sent to the governor contract by mistake. Note that if the executor is simply the governor itself, use of `relay` is redundant."
      },
      "state(uint256)": {
        "details": "See {IGovernor-state}."
      },
      "supportsInterface(bytes4)": {
        "details": "See {IERC165-supportsInterface}."
      },
      "updateQuorumNumerator(uint256)": {
        "details": "Changes the quorum numerator. Emits a {QuorumNumeratorUpdated} event. Requirements: - Must be called through a governance proposal. - New numerator must be smaller or equal to the denominator."
      },
      "version()": {
        "details": "See {IGovernor-version}."
      },
      "votingDelay()": {
        "details": "Delay, in number of block, between the proposal is created and the vote starts. This can be increassed to leave time for users to buy voting power, of delegate it, before the voting of a proposal starts."
      },
      "votingPeriod()": {
        "details": "Delay, in number of blocks, between the vote start and vote ends. NOTE: The {votingDelay} can delay the start of the vote. This must be considered when setting the voting duration compared to the voting delay."
      }
    },
    "version": 1
  },
  "userdoc": {
    "kind": "user",
    "methods": {
      "getVotes(address,uint256)": {
        "notice": "Read the voting weight from the token's built in snapshot mechanism (see {IGovernor-getVotes})."
      },
      "votingDelay()": {
        "notice": "module:user-config"
      },
      "votingPeriod()": {
        "notice": "module:user-config"
      }
    },
    "notice": "Governor that takes 1 vote per palm holder",
    "version": 1
  }
}