{
  "contractName": "PeoplesGovernor",
  "abi": [
    {
      "inputs": [
        {
          "internalType": "contract IVotes",
          "name": "_token",
          "type": "address"
        }
      ],
      "stateMutability": "nonpayable",
      "type": "constructor"
    },
    {
      "anonymous": false,
      "inputs": [
        {
          "indexed": false,
          "internalType": "uint256",
          "name": "proposalId",
          "type": "uint256"
        }
      ],
      "name": "ProposalCanceled",
      "type": "event"
    },
    {
      "anonymous": false,
      "inputs": [
        {
          "indexed": false,
          "internalType": "uint256",
          "name": "proposalId",
          "type": "uint256"
        },
        {
          "indexed": false,
          "internalType": "address",
          "name": "proposer",
          "type": "address"
        },
        {
          "indexed": false,
          "internalType": "address[]",
          "name": "targets",
          "type": "address[]"
        },
        {
          "indexed": false,
          "internalType": "uint256[]",
          "name": "values",
          "type": "uint256[]"
        },
        {
          "indexed": false,
          "internalType": "string[]",
          "name": "signatures",
          "type": "string[]"
        },
        {
          "indexed": false,
          "internalType": "bytes[]",
          "name": "calldatas",
          "type": "bytes[]"
        },
        {
          "indexed": false,
          "internalType": "uint256",
          "name": "startBlock",
          "type": "uint256"
        },
        {
          "indexed": false,
          "internalType": "uint256",
          "name": "endBlock",
          "type": "uint256"
        },
        {
          "indexed": false,
          "internalType": "string",
          "name": "description",
          "type": "string"
        }
      ],
      "name": "ProposalCreated",
      "type": "event"
    },
    {
      "anonymous": false,
      "inputs": [
        {
          "indexed": false,
          "internalType": "uint256",
          "name": "proposalId",
          "type": "uint256"
        }
      ],
      "name": "ProposalExecuted",
      "type": "event"
    },
    {
      "anonymous": false,
      "inputs": [
        {
          "indexed": false,
          "internalType": "uint256",
          "name": "oldQuorumNumerator",
          "type": "uint256"
        },
        {
          "indexed": false,
          "internalType": "uint256",
          "name": "newQuorumNumerator",
          "type": "uint256"
        }
      ],
      "name": "QuorumNumeratorUpdated",
      "type": "event"
    },
    {
      "anonymous": false,
      "inputs": [
        {
          "indexed": true,
          "internalType": "address",
          "name": "voter",
          "type": "address"
        },
        {
          "indexed": false,
          "internalType": "uint256",
          "name": "proposalId",
          "type": "uint256"
        },
        {
          "indexed": false,
          "internalType": "uint8",
          "name": "support",
          "type": "uint8"
        },
        {
          "indexed": false,
          "internalType": "uint256",
          "name": "weight",
          "type": "uint256"
        },
        {
          "indexed": false,
          "internalType": "string",
          "name": "reason",
          "type": "string"
        }
      ],
      "name": "VoteCast",
      "type": "event"
    },
    {
      "inputs": [],
      "name": "BALLOT_TYPEHASH",
      "outputs": [
        {
          "internalType": "bytes32",
          "name": "",
          "type": "bytes32"
        }
      ],
      "stateMutability": "view",
      "type": "function"
    },
    {
      "inputs": [
        {
          "internalType": "uint256",
          "name": "proposalId",
          "type": "uint256"
        },
        {
          "internalType": "uint8",
          "name": "support",
          "type": "uint8"
        }
      ],
      "name": "castVote",
      "outputs": [
        {
          "internalType": "uint256",
          "name": "",
          "type": "uint256"
        }
      ],
      "stateMutability": "nonpayable",
      "type": "function"
    },
    {
      "inputs": [
        {
          "internalType": "uint256",
          "name": "proposalId",
          "type": "uint256"
        },
        {
          "internalType": "uint8",
          "name": "support",
          "type": "uint8"
        },
        {
          "internalType": "uint8",
          "name": "v",
          "type": "uint8"
        },
        {
          "internalType": "bytes32",
          "name": "r",
          "type": "bytes32"
        },
        {
          "internalType": "bytes32",
          "name": "s",
          "type": "bytes32"
        }
      ],
      "name": "castVoteBySig",
      "outputs": [
        {
          "internalType": "uint256",
          "name": "",
          "type": "uint256"
        }
      ],
      "stateMutability": "nonpayable",
      "type": "function"
    },
    {
      "inputs": [
        {
          "internalType": "uint256",
          "name": "proposalId",
          "type": "uint256"
        },
        {
          "internalType": "uint8",
          "name": "support",
          "type": "uint8"
        },
        {
          "internalType": "string",
          "name": "reason",
          "type": "string"
        }
      ],
      "name": "castVoteWithReason",
      "outputs": [
        {
          "internalType": "uint256",
          "name": "",
          "type": "uint256"
        }
      ],
      "stateMutability": "nonpayable",
      "type": "function"
    },
    {
      "inputs": [
        {
          "internalType": "address[]",
          "name": "targets",
          "type": "address[]"
        },
        {
          "internalType": "uint256[]",
          "name": "values",
          "type": "uint256[]"
        },
        {
          "internalType": "bytes[]",
          "name": "calldatas",
          "type": "bytes[]"
        },
        {
          "internalType": "bytes32",
          "name": "descriptionHash",
          "type": "bytes32"
        }
      ],
      "name": "execute",
      "outputs": [
        {
          "internalType": "uint256",
          "name": "",
          "type": "uint256"
        }
      ],
      "stateMutability": "payable",
      "type": "function"
    },
    {
      "inputs": [
        {
          "internalType": "address",
          "name": "account",
          "type": "address"
        },
        {
          "internalType": "uint256",
          "name": "blockNumber",
          "type": "uint256"
        }
      ],
      "name": "getVotes",
      "outputs": [
        {
          "internalType": "uint256",
          "name": "",
          "type": "uint256"
        }
      ],
      "stateMutability": "view",
      "type": "function"
    },
    {
      "inputs": [
        {
          "internalType": "address[]",
          "name": "targets",
          "type": "address[]"
        },
        {
          "internalType": "uint256[]",
          "name": "values",
          "type": "uint256[]"
        },
        {
          "internalType": "bytes[]",
          "name": "calldatas",
          "type": "bytes[]"
        },
        {
          "internalType": "bytes32",
          "name": "descriptionHash",
          "type": "bytes32"
        }
      ],
      "name": "hashProposal",
      "outputs": [
        {
          "internalType": "uint256",
          "name": "",
          "type": "uint256"
        }
      ],
      "stateMutability": "pure",
      "type": "function"
    },
    {
      "inputs": [],
      "name": "name",
      "outputs": [
        {
          "internalType": "string",
          "name": "",
          "type": "string"
        }
      ],
      "stateMutability": "view",
      "type": "function"
    },
    {
      "inputs": [
        {
          "internalType": "uint256",
          "name": "proposalId",
          "type": "uint256"
        }
      ],
      "name": "proposalDeadline",
      "outputs": [
        {
          "internalType": "uint256",
          "name": "",
          "type": "uint256"
        }
      ],
      "stateMutability": "view",
      "type": "function"
    },
    {
      "inputs": [
        {
          "internalType": "uint256",
          "name": "proposalId",
          "type": "uint256"
        }
      ],
      "name": "proposalSnapshot",
      "outputs": [
        {
          "internalType": "uint256",
          "name": "",
          "type": "uint256"
        }
      ],
      "stateMutability": "view",
      "type": "function"
    },
    {
      "inputs": [
        {
          "internalType": "address[]",
          "name": "targets",
          "type": "address[]"
        },
        {
          "internalType": "uint256[]",
          "name": "values",
          "type": "uint256[]"
        },
        {
          "internalType": "bytes[]",
          "name": "calldatas",
          "type": "bytes[]"
        },
        {
          "internalType": "string",
          "name": "description",
          "type": "string"
        }
      ],
      "name": "propose",
      "outputs": [
        {
          "internalType": "uint256",
          "name": "",
          "type": "uint256"
        }
      ],
      "stateMutability": "nonpayable",
      "type": "function"
    },
    {
      "inputs": [
        {
          "internalType": "uint256",
          "name": "blockNumber",
          "type": "uint256"
        }
      ],
      "name": "quorum",
      "outputs": [
        {
          "internalType": "uint256",
          "name": "",
          "type": "uint256"
        }
      ],
      "stateMutability": "view",
      "type": "function"
    },
    {
      "inputs": [],
      "name": "quorumDenominator",
      "outputs": [
        {
          "internalType": "uint256",
          "name": "",
          "type": "uint256"
        }
      ],
      "stateMutability": "view",
      "type": "function"
    },
    {
      "inputs": [],
      "name": "quorumNumerator",
      "outputs": [
        {
          "internalType": "uint256",
          "name": "",
          "type": "uint256"
        }
      ],
      "stateMutability": "view",
      "type": "function"
    },
    {
      "inputs": [
        {
          "internalType": "address",
          "name": "target",
          "type": "address"
        },
        {
          "internalType": "uint256",
          "name": "value",
          "type": "uint256"
        },
        {
          "internalType": "bytes",
          "name": "data",
          "type": "bytes"
        }
      ],
      "name": "relay",
      "outputs": [],
      "stateMutability": "nonpayable",
      "type": "function"
    },
    {
      "inputs": [
        {
          "internalType": "uint256",
          "name": "proposalId",
          "type": "uint256"
        }
      ],
      "name": "state",
      "outputs": [
        {
          "internalType": "enum IGovernor.ProposalState",
          "name": "",
          "type": "uint8"
        }
      ],
      "stateMutability": "view",
      "type": "function"
    },
    {
      "inputs": [
        {
          "internalType": "bytes4",
          "name": "interfaceId",
          "type": "bytes4"
        }
      ],
      "name": "supportsInterface",
      "outputs": [
        {
          "internalType": "bool",
          "name": "",
          "type": "bool"
        }
      ],
      "stateMutability": "view",
      "type": "function"
    },
    {
      "inputs": [],
      "name": "token",
      "outputs": [
        {
          "internalType": "contract IVotes",
          "name": "",
          "type": "address"
        }
      ],
      "stateMutability": "view",
      "type": "function"
    },
    {
      "inputs": [
        {
          "internalType": "uint256",
          "name": "newQuorumNumerator",
          "type": "uint256"
        }
      ],
      "name": "updateQuorumNumerator",
      "outputs": [],
      "stateMutability": "nonpayable",
      "type": "function"
    },
    {
      "inputs": [],
      "name": "version",
      "outputs": [
        {
          "internalType": "string",
          "name": "",
          "type": "string"
        }
      ],
      "stateMutability": "view",
      "type": "function"
    },
    {
      "stateMutability": "payable",
      "type": "receive"
    },
    {
      "inputs": [],
      "name": "votingDelay",
      "outputs": [
        {
          "internalType": "uint256",
          "name": "",
          "type": "uint256"
        }
      ],
      "stateMutability": "pure",
      "type": "function"
    },
    {
      "inputs": [],
      "name": "votingPeriod",
      "outputs": [
        {
          "internalType": "uint256",
          "name": "",
          "type": "uint256"
        }
      ],
      "stateMutability": "pure",
      "type": "function"
    },
    {
      "inputs": [],
      "name": "proposalThreshold",
      "outputs": [
        {
          "internalType": "uint256",
          "name": "",
          "type": "uint256"
        }
      ],
      "stateMutability": "pure",
      "type": "function"
    },
    {
      "inputs": [
        {
          "internalType": "uint256",
          "name": "proposalId",
          "type": "uint256"
        },
        {
          "internalType": "address",
          "name": "account",
          "type": "address"
        }
      ],
      "name": "hasVoted",
      "outputs": [
        {
          "internalType": "bool",
          "name": "",
          "type": "bool"
        }
      ],
      "stateMutability": "view",
      "type": "function"
    },
    {
      "inputs": [],
      "name": "COUNTING_MODE",
      "outputs": [
        {
          "internalType": "string",
          "name": "",
          "type": "string"
        }
      ],
      "stateMutability": "pure",
      "type": "function"
    }
  ],
  "bytecode": "0x610160604052731a4d7378f1ece02e76bbcfb0a8f4a9d8f607a819600360006101000a81548173ffffffffffffffffffffffffffffffffffffffff021916908373ffffffffffffffffffffffffffffffffffffffff1602179055503480156200006757600080fd5b50604051620049803803806200498083398181016040528101906200008d919062000444565b6004816040518060400160405280600c81526020017f50616c6d476f7665726e6f72000000000000000000000000000000000000000081525080620000d7620001f260201b60201c565b60008280519060200120905060008280519060200120905060007f8b73c3c69bb8fe3d512ecc4cf759cc79239f7b179b0ffacaa9a75d522b39400f90508260e081815250508161010081815250504660a08181525050620001408184846200022f60201b60201c565b608081815250503073ffffffffffffffffffffffffffffffffffffffff1660c08173ffffffffffffffffffffffffffffffffffffffff168152505080610120818152505050505050508060009080519060200190620001a192919062000316565b50508073ffffffffffffffffffffffffffffffffffffffff166101408173ffffffffffffffffffffffffffffffffffffffff168152505050620001ea816200026b60201b60201c565b50506200067a565b60606040518060400160405280600181526020017f3100000000000000000000000000000000000000000000000000000000000000815250905090565b600083838346306040516020016200024c959493929190620004bd565b6040516020818303038152906040528051906020012090509392505050565b6200027b6200030d60201b60201c565b811115620002c0576040517f08c379a0000000000000000000000000000000000000000000000000000000008152600401620002b790620005c7565b60405180910390fd5b60006002549050816002819055507f0553476bf02ef2726e8ce5ced78d63e26e602e4a2257b1f559418e24b4633997818360405162000301929190620005e9565b60405180910390a15050565b60006064905090565b828054620003249062000645565b90600052602060002090601f01602090048101928262000348576000855562000394565b82601f106200036357805160ff191683800117855562000394565b8280016001018555821562000394579182015b828111156200039357825182559160200191906001019062000376565b5b509050620003a39190620003a7565b5090565b5b80821115620003c2576000816000905550600101620003a8565b5090565b600080fd5b600073ffffffffffffffffffffffffffffffffffffffff82169050919050565b6000620003f882620003cb565b9050919050565b60006200040c82620003eb565b9050919050565b6200041e81620003ff565b81146200042a57600080fd5b50565b6000815190506200043e8162000413565b92915050565b6000602082840312156200045d576200045c620003c6565b5b60006200046d848285016200042d565b91505092915050565b6000819050919050565b6200048b8162000476565b82525050565b6000819050919050565b620004a68162000491565b82525050565b620004b781620003eb565b82525050565b600060a082019050620004d4600083018862000480565b620004e3602083018762000480565b620004f2604083018662000480565b6200050160608301856200049b565b620005106080830184620004ac565b9695505050505050565b600082825260208201905092915050565b7f476f7665726e6f72566f74657351756f72756d4672616374696f6e3a2071756f60008201527f72756d4e756d657261746f72206f7665722071756f72756d44656e6f6d696e6160208201527f746f720000000000000000000000000000000000000000000000000000000000604082015250565b6000620005af6043836200051a565b9150620005bc826200052b565b606082019050919050565b60006020820190508181036000830152620005e281620005a0565b9050919050565b60006040820190506200060060008301856200049b565b6200060f60208301846200049b565b9392505050565b7f4e487b7100000000000000000000000000000000000000000000000000000000600052602260045260246000fd5b600060028204905060018216806200065e57607f821691505b60208210810362000674576200067362000616565b5b50919050565b60805160a05160c05160e05161010051610120516101405161429d620006e3600039600081816111ea015281816112a001526113550152600061198a015260006119cc015260006119ab015260006118e0015260006119360152600061195f015261429d6000f3fe60806040526004361061016a5760003560e01c80637b3c71d3116100d1578063c28bc2fa1161008a578063deaaa7cc11610064578063deaaa7cc146105f1578063eb9019d41461061c578063f8ce560a14610659578063fc0c546a14610696576101b0565b8063c28bc2fa14610560578063c59057e414610589578063dd4e2ba5146105c6576101b0565b80637b3c71d3146104285780637d5e81e21461046557806397c3d334146104a2578063a7713a70146104cd578063b58131b0146104f8578063c01f9e3714610523576101b0565b80633932abb1116101235780633932abb1146102de5780633bccf4fd146103095780633e4f49e614610346578063438596321461038357806354fd4d50146103c057806356781388146103eb576101b0565b806301ffc9a7146101b557806302a251a3146101f257806306f3f9e61461021d57806306fdde03146102465780632656227d146102715780632d63f693146102a1576101b0565b366101b0573073ffffffffffffffffffffffffffffffffffffffff1661018e6106c1565b73ffffffffffffffffffffffffffffffffffffffff16146101ae57600080fd5b005b600080fd5b3480156101c157600080fd5b506101dc60048036038101906101d791906121b5565b6106c9565b6040516101e991906121fd565b60405180910390f35b3480156101fe57600080fd5b50610207610743565b6040516102149190612231565b60405180910390f35b34801561022957600080fd5b50610244600480360381019061023f9190612278565b61074d565b005b34801561025257600080fd5b5061025b6107d5565b604051610268919061233e565b60405180910390f35b61028b60048036038101906102869190612795565b610867565b6040516102989190612231565b60405180910390f35b3480156102ad57600080fd5b506102c860048036038101906102c39190612278565b61099a565b6040516102d59190612231565b60405180910390f35b3480156102ea57600080fd5b506102f3610a08565b6040516103009190612231565b60405180910390f35b34801561031557600080fd5b50610330600480360381019061032b9190612889565b610a12565b60405161033d9190612231565b60405180910390f35b34801561035257600080fd5b5061036d60048036038101906103689190612278565b610a9c565b60405161037a919061297b565b60405180910390f35b34801561038f57600080fd5b506103aa60048036038101906103a59190612996565b610bb0565b6040516103b791906121fd565b60405180910390f35b3480156103cc57600080fd5b506103d5610c1b565b6040516103e2919061233e565b60405180910390f35b3480156103f757600080fd5b50610412600480360381019061040d91906129d6565b610c58565b60405161041f9190612231565b60405180910390f35b34801561043457600080fd5b5061044f600480360381019061044a9190612a71565b610c89565b60405161045c9190612231565b60405180910390f35b34801561047157600080fd5b5061048c60048036038101906104879190612b86565b610cf1565b6040516104999190612231565b60405180910390f35b3480156104ae57600080fd5b506104b7610ff1565b6040516104c49190612231565b60405180910390f35b3480156104d957600080fd5b506104e2610ffa565b6040516104ef9190612231565b60405180910390f35b34801561050457600080fd5b5061050d611004565b60405161051a9190612231565b60405180910390f35b34801561052f57600080fd5b5061054a60048036038101906105459190612278565b611009565b6040516105579190612231565b60405180910390f35b34801561056c57600080fd5b5061058760048036038101906105829190612cb3565b611077565b005b34801561059557600080fd5b506105b060048036038101906105ab9190612795565b611149565b6040516105bd9190612231565b60405180910390f35b3480156105d257600080fd5b506105db611185565b6040516105e8919061233e565b60405180910390f35b3480156105fd57600080fd5b506106066111c2565b6040516106139190612d36565b60405180910390f35b34801561062857600080fd5b50610643600480360381019061063e9190612d51565b6111e6565b6040516106509190612231565b60405180910390f35b34801561066557600080fd5b50610680600480360381019061067b9190612278565b61128c565b60405161068d9190612231565b60405180910390f35b3480156106a257600080fd5b506106ab611353565b6040516106b89190612df0565b60405180910390f35b600030905090565b60007fbf26d897000000000000000000000000000000000000000000000000000000007bffffffffffffffffffffffffffffffffffffffffffffffffffffffff1916827bffffffffffffffffffffffffffffffffffffffffffffffffffffffff1916148061073c575061073b82611377565b5b9050919050565b600061b3cb905090565b6107556106c1565b73ffffffffffffffffffffffffffffffffffffffff166107736113e1565b73ffffffffffffffffffffffffffffffffffffffff16146107c9576040517f08c379a00000000000000000000000000000000000000000000000000000000081526004016107c090612e57565b60405180910390fd5b6107d2816113e9565b50565b6060600080546107e490612ea6565b80601f016020809104026020016040519081016040528092919081815260200182805461081090612ea6565b801561085d5780601f106108325761010080835404028352916020019161085d565b820191906000526020600020905b81548152906001019060200180831161084057829003601f168201915b5050505050905090565b60008061087686868686611149565b9050600061088382610a9c565b90506004600781111561089957610898612904565b5b8160078111156108ac576108ab612904565b5b14806108dc5750600560078111156108c7576108c6612904565b5b8160078111156108da576108d9612904565b5b145b61091b576040517f08c379a000000000000000000000000000000000000000000000000000000000815260040161091290612f49565b60405180910390fd5b600180600084815260200190815260200160002060020160006101000a81548160ff0219169083151502179055507f712ae1383f79ac853f8d882153778e0260ef8f03b504e2866e0593e04d2b291f826040516109789190612231565b60405180910390a161098d828888888861147e565b8192505050949350505050565b60006109f7600160008481526020019081526020016000206000016040518060200160405290816000820160009054906101000a900467ffffffffffffffff1667ffffffffffffffff1667ffffffffffffffff168152505061158d565b67ffffffffffffffff169050919050565b60006119af905090565b600080610a73610a6b7f150214d74d59b7d1e90c73fc22ef3d991dd0a76b046543d4d80ab92d2a50328f8989604051602001610a5093929190612f78565b6040516020818303038152906040528051906020012061159b565b8686866115b5565b9050610a90878288604051806020016040528060008152506115e0565b91505095945050505050565b6000806001600084815260200190815260200160002090508060020160009054906101000a900460ff1615610ad5576007915050610bab565b8060020160019054906101000a900460ff1615610af6576002915050610bab565b6000610b018461099a565b905060008103610b46576040517f08c379a0000000000000000000000000000000000000000000000000000000008152600401610b3d90612ffb565b60405180910390fd5b438110610b5857600092505050610bab565b6000610b6385611009565b9050438110610b785760019350505050610bab565b610b8185611734565b8015610b925750610b918561177b565b5b15610ba35760049350505050610bab565b600393505050505b919050565b60006004600084815260200190815260200160002060030160008373ffffffffffffffffffffffffffffffffffffffff1673ffffffffffffffffffffffffffffffffffffffff16815260200190815260200160002060009054906101000a900460ff16905092915050565b60606040518060400160405280600181526020017f3100000000000000000000000000000000000000000000000000000000000000815250905090565b600080610c636113e1565b9050610c80848285604051806020016040528060008152506115e0565b91505092915050565b600080610c946113e1565b9050610ce686828787878080601f016020809104026020016040519081016040528093929190818152602001838380828437600081840152601f19601f820116905080830192505050505050506115e0565b915050949350505050565b6000610cfb611004565b610d1133600143610d0c919061304a565b6111e6565b1015610d52576040517f08c379a0000000000000000000000000000000000000000000000000000000008152600401610d4990613116565b60405180910390fd5b6000610d678686868680519060200120611149565b90508451865114610dad576040517f08c379a0000000000000000000000000000000000000000000000000000000008152600401610da4906131a8565b60405180910390fd5b8351865114610df1576040517f08c379a0000000000000000000000000000000000000000000000000000000008152600401610de8906131a8565b60405180910390fd5b6000865111610e35576040517f08c379a0000000000000000000000000000000000000000000000000000000008152600401610e2c90613214565b60405180910390fd5b6000600160008381526020019081526020016000209050610e95816000016040518060200160405290816000820160009054906101000a900467ffffffffffffffff1667ffffffffffffffff1667ffffffffffffffff16815250506117a6565b610ed4576040517f08c379a0000000000000000000000000000000000000000000000000000000008152600401610ecb906132a6565b60405180910390fd5b6000610ee6610ee1610a08565b6117c0565b610eef436117c0565b610ef991906132da565b90506000610f0d610f08610743565b6117c0565b82610f1891906132da565b9050610f30828460000161181790919063ffffffff16565b610f46818460010161181790919063ffffffff16565b7f7d84a6263ae0d98d3329bd7b46bb4e8d6f98cd35a7adb45c274c8b7fd5ebd5e084610f706113e1565b8b8b8d5167ffffffffffffffff811115610f8d57610f8c612365565b5b604051908082528060200260200182016040528015610fc057816020015b6060815260200190600190039081610fab5790505b508c88888e604051610fda999897969594939291906136f7565b60405180910390a183945050505050949350505050565b60006064905090565b6000600254905090565b600090565b6000611066600160008481526020019081526020016000206001016040518060200160405290816000820160009054906101000a900467ffffffffffffffff1667ffffffffffffffff1667ffffffffffffffff168152505061158d565b67ffffffffffffffff169050919050565b61107f6106c1565b73ffffffffffffffffffffffffffffffffffffffff1661109d6113e1565b73ffffffffffffffffffffffffffffffffffffffff16146110f3576040517f08c379a00000000000000000000000000000000000000000000000000000000081526004016110ea90612e57565b60405180910390fd5b6111428483838080601f016020809104026020016040519081016040528093929190818152602001838380828437600081840152601f19601f8201169050808301925050505050505085611846565b5050505050565b60008484848460405160200161116294939291906137a7565b6040516020818303038152906040528051906020012060001c9050949350505050565b60606040518060400160405280602081526020017f737570706f72743d627261766f2677756f72756d3d666f722c6162737461696e815250905090565b7f150214d74d59b7d1e90c73fc22ef3d991dd0a76b046543d4d80ab92d2a50328f81565b60007f000000000000000000000000000000000000000000000000000000000000000073ffffffffffffffffffffffffffffffffffffffff16633a46b1a884846040518363ffffffff1660e01b8152600401611243929190613801565b602060405180830381865afa158015611260573d6000803e3d6000fd5b505050506040513d601f19601f82011682018060405250810190611284919061383f565b905092915050565b6000611296610ff1565b61129e610ffa565b7f000000000000000000000000000000000000000000000000000000000000000073ffffffffffffffffffffffffffffffffffffffff16638e539e8c856040518263ffffffff1660e01b81526004016112f79190612231565b602060405180830381865afa158015611314573d6000803e3d6000fd5b505050506040513d601f19601f82011682018060405250810190611338919061383f565b611342919061386c565b61134c91906138f5565b9050919050565b7f000000000000000000000000000000000000000000000000000000000000000081565b60007f01ffc9a7000000000000000000000000000000000000000000000000000000007bffffffffffffffffffffffffffffffffffffffffffffffffffffffff1916827bffffffffffffffffffffffffffffffffffffffffffffffffffffffff1916149050919050565b600033905090565b6113f1610ff1565b811115611433576040517f08c379a000000000000000000000000000000000000000000000000000000000815260040161142a906139be565b60405180910390fd5b60006002549050816002819055507f0553476bf02ef2726e8ce5ced78d63e26e602e4a2257b1f559418e24b463399781836040516114729291906139de565b60405180910390a15050565b600060405180606001604052806027815260200161421860279139905060005b8551811015611584576000808783815181106114bd576114bc613a07565b5b602002602001015173ffffffffffffffffffffffffffffffffffffffff168784815181106114ee576114ed613a07565b5b602002602001015187858151811061150957611508613a07565b5b602002602001015160405161151e9190613a72565b60006040518083038185875af1925050503d806000811461155b576040519150601f19603f3d011682016040523d82523d6000602084013e611560565b606091505b5091509150611570828286611875565b5050508061157d90613a89565b905061149e565b50505050505050565b600081600001519050919050565b60006115ae6115a86118dc565b836119f6565b9050919050565b60008060006115c687878787611a29565b915091506115d381611b35565b8192505050949350505050565b6000806001600087815260200190815260200160002090506001600781111561160c5761160b612904565b5b61161587610a9c565b600781111561162757611626612904565b5b14611667576040517f08c379a000000000000000000000000000000000000000000000000000000000815260040161165e90613b43565b60405180910390fd5b60006116c5866116b6846000016040518060200160405290816000820160009054906101000a900467ffffffffffffffff1667ffffffffffffffff1667ffffffffffffffff168152505061158d565b67ffffffffffffffff166111e6565b90506116d387878784611d01565b8573ffffffffffffffffffffffffffffffffffffffff167fb8e138887d0aa13bab447e82de9d5c1777041ecd21ca36ba824ff1e6c07ddda48887848860405161171f9493929190613b63565b60405180910390a28092505050949350505050565b600080600460008481526020019081526020016000209050806002015481600101546117609190613baf565b61177161176c8561099a565b61128c565b1115915050919050565b6000806004600084815260200190815260200160002090508060000154816001015411915050919050565b600080826000015167ffffffffffffffff16149050919050565b600067ffffffffffffffff801682111561180f576040517f08c379a000000000000000000000000000000000000000000000000000000000815260040161180690613c77565b60405180910390fd5b819050919050565b808260000160006101000a81548167ffffffffffffffff021916908367ffffffffffffffff1602179055505050565b606061186c84848460405180606001604052806029815260200161423f60299139611fd8565b90509392505050565b60608315611885578290506118d5565b6000835111156118985782518084602001fd5b816040517f08c379a00000000000000000000000000000000000000000000000000000000081526004016118cc919061233e565b60405180910390fd5b9392505050565b60007f000000000000000000000000000000000000000000000000000000000000000073ffffffffffffffffffffffffffffffffffffffff163073ffffffffffffffffffffffffffffffffffffffff1614801561195857507f000000000000000000000000000000000000000000000000000000000000000046145b15611985577f000000000000000000000000000000000000000000000000000000000000000090506119f3565b6119f07f00000000000000000000000000000000000000000000000000000000000000007f00000000000000000000000000000000000000000000000000000000000000007f00000000000000000000000000000000000000000000000000000000000000006120ec565b90505b90565b60008282604051602001611a0b929190613d0f565b60405160208183030381529060405280519060200120905092915050565b6000807f7fffffffffffffffffffffffffffffff5d576e7357a4501ddfe92f46681b20a08360001c1115611a64576000600391509150611b2c565b601b8560ff1614158015611a7c5750601c8560ff1614155b15611a8e576000600491509150611b2c565b600060018787878760405160008152602001604052604051611ab39493929190613d46565b6020604051602081039080840390855afa158015611ad5573d6000803e3d6000fd5b505050602060405103519050600073ffffffffffffffffffffffffffffffffffffffff168173ffffffffffffffffffffffffffffffffffffffff1603611b2357600060019250925050611b2c565b80600092509250505b94509492505050565b60006004811115611b4957611b48612904565b5b816004811115611b5c57611b5b612904565b5b0315611cfe5760016004811115611b7657611b75612904565b5b816004811115611b8957611b88612904565b5b03611bc9576040517f08c379a0000000000000000000000000000000000000000000000000000000008152600401611bc090613dd7565b60405180910390fd5b60026004811115611bdd57611bdc612904565b5b816004811115611bf057611bef612904565b5b03611c30576040517f08c379a0000000000000000000000000000000000000000000000000000000008152600401611c2790613e43565b60405180910390fd5b60036004811115611c4457611c43612904565b5b816004811115611c5757611c56612904565b5b03611c97576040517f08c379a0000000000000000000000000000000000000000000000000000000008152600401611c8e90613ed5565b60405180910390fd5b600480811115611caa57611ca9612904565b5b816004811115611cbd57611cbc612904565b5b03611cfd576040517f08c379a0000000000000000000000000000000000000000000000000000000008152600401611cf490613f67565b60405180910390fd5b5b50565b60006004600086815260200190815260200160002090508060030160008573ffffffffffffffffffffffffffffffffffffffff1673ffffffffffffffffffffffffffffffffffffffff16815260200190815260200160002060009054906101000a900460ff1615611da7576040517f08c379a0000000000000000000000000000000000000000000000000000000008152600401611d9e90613ff9565b60405180910390fd5b60018160030160008673ffffffffffffffffffffffffffffffffffffffff1673ffffffffffffffffffffffffffffffffffffffff16815260200190815260200160002060006101000a81548160ff0219169083151502179055506000600360009054906101000a900473ffffffffffffffffffffffffffffffffffffffff1673ffffffffffffffffffffffffffffffffffffffff166370a08231336040518263ffffffff1660e01b8152600401611e5e9190614019565b602060405180830381865afa158015611e7b573d6000803e3d6000fd5b505050506040513d601f19601f82011682018060405250810190611e9f919061383f565b905060006103e88210611ebc57600181611eb99190613baf565b90505b60018210611ed3578181611ed09190613baf565b90505b60006002811115611ee757611ee6612904565b5b60ff168560ff1603611f135780836000016000828254611f079190613baf565b92505081905550611fcf565b60016002811115611f2757611f26612904565b5b60ff168560ff1603611f535780836001016000828254611f479190613baf565b92505081905550611fce565b600280811115611f6657611f65612904565b5b60ff168560ff1603611f925780836002016000828254611f869190613baf565b92505081905550611fcd565b6040517f08c379a0000000000000000000000000000000000000000000000000000000008152600401611fc4906140a6565b60405180910390fd5b5b5b50505050505050565b60608247101561201d576040517f08c379a000000000000000000000000000000000000000000000000000000000815260040161201490614138565b60405180910390fd5b61202685612126565b612065576040517f08c379a000000000000000000000000000000000000000000000000000000000815260040161205c906141a4565b60405180910390fd5b6000808673ffffffffffffffffffffffffffffffffffffffff16858760405161208e9190613a72565b60006040518083038185875af1925050503d80600081146120cb576040519150601f19603f3d011682016040523d82523d6000602084013e6120d0565b606091505b50915091506120e0828286611875565b92505050949350505050565b600083838346306040516020016121079594939291906141c4565b6040516020818303038152906040528051906020012090509392505050565b6000808273ffffffffffffffffffffffffffffffffffffffff163b119050919050565b6000604051905090565b600080fd5b600080fd5b60007fffffffff0000000000000000000000000000000000000000000000000000000082169050919050565b6121928161215d565b811461219d57600080fd5b50565b6000813590506121af81612189565b92915050565b6000602082840312156121cb576121ca612153565b5b60006121d9848285016121a0565b91505092915050565b60008115159050919050565b6121f7816121e2565b82525050565b600060208201905061221260008301846121ee565b92915050565b6000819050919050565b61222b81612218565b82525050565b60006020820190506122466000830184612222565b92915050565b61225581612218565b811461226057600080fd5b50565b6000813590506122728161224c565b92915050565b60006020828403121561228e5761228d612153565b5b600061229c84828501612263565b91505092915050565b600081519050919050565b600082825260208201905092915050565b60005b838110156122df5780820151818401526020810190506122c4565b838111156122ee576000848401525b50505050565b6000601f19601f8301169050919050565b6000612310826122a5565b61231a81856122b0565b935061232a8185602086016122c1565b612333816122f4565b840191505092915050565b600060208201905081810360008301526123588184612305565b905092915050565b600080fd5b7f4e487b7100000000000000000000000000000000000000000000000000000000600052604160045260246000fd5b61239d826122f4565b810181811067ffffffffffffffff821117156123bc576123bb612365565b5b80604052505050565b60006123cf612149565b90506123db8282612394565b919050565b600067ffffffffffffffff8211156123fb576123fa612365565b5b602082029050602081019050919050565b600080fd5b600073ffffffffffffffffffffffffffffffffffffffff82169050919050565b600061243c82612411565b9050919050565b61244c81612431565b811461245757600080fd5b50565b60008135905061246981612443565b92915050565b600061248261247d846123e0565b6123c5565b905080838252602082019050602084028301858111156124a5576124a461240c565b5b835b818110156124ce57806124ba888261245a565b8452602084019350506020810190506124a7565b5050509392505050565b600082601f8301126124ed576124ec612360565b5b81356124fd84826020860161246f565b91505092915050565b600067ffffffffffffffff82111561252157612520612365565b5b602082029050602081019050919050565b600061254561254084612506565b6123c5565b905080838252602082019050602084028301858111156125685761256761240c565b5b835b81811015612591578061257d8882612263565b84526020840193505060208101905061256a565b5050509392505050565b600082601f8301126125b0576125af612360565b5b81356125c0848260208601612532565b91505092915050565b600067ffffffffffffffff8211156125e4576125e3612365565b5b602082029050602081019050919050565b600080fd5b600067ffffffffffffffff82111561261557612614612365565b5b61261e826122f4565b9050602081019050919050565b82818337600083830152505050565b600061264d612648846125fa565b6123c5565b905082815260208101848484011115612669576126686125f5565b5b61267484828561262b565b509392505050565b600082601f83011261269157612690612360565b5b81356126a184826020860161263a565b91505092915050565b60006126bd6126b8846125c9565b6123c5565b905080838252602082019050602084028301858111156126e0576126df61240c565b5b835b8181101561272757803567ffffffffffffffff81111561270557612704612360565b5b808601612712898261267c565b855260208501945050506020810190506126e2565b5050509392505050565b600082601f83011261274657612745612360565b5b81356127568482602086016126aa565b91505092915050565b6000819050919050565b6127728161275f565b811461277d57600080fd5b50565b60008135905061278f81612769565b92915050565b600080600080608085870312156127af576127ae612153565b5b600085013567ffffffffffffffff8111156127cd576127cc612158565b5b6127d9878288016124d8565b945050602085013567ffffffffffffffff8111156127fa576127f9612158565b5b6128068782880161259b565b935050604085013567ffffffffffffffff81111561282757612826612158565b5b61283387828801612731565b925050606061284487828801612780565b91505092959194509250565b600060ff82169050919050565b61286681612850565b811461287157600080fd5b50565b6000813590506128838161285d565b92915050565b600080600080600060a086880312156128a5576128a4612153565b5b60006128b388828901612263565b95505060206128c488828901612874565b94505060406128d588828901612874565b93505060606128e688828901612780565b92505060806128f788828901612780565b9150509295509295909350565b7f4e487b7100000000000000000000000000000000000000000000000000000000600052602160045260246000fd5b6008811061294457612943612904565b5b50565b600081905061295582612933565b919050565b600061296582612947565b9050919050565b6129758161295a565b82525050565b6000602082019050612990600083018461296c565b92915050565b600080604083850312156129ad576129ac612153565b5b60006129bb85828601612263565b92505060206129cc8582860161245a565b9150509250929050565b600080604083850312156129ed576129ec612153565b5b60006129fb85828601612263565b9250506020612a0c85828601612874565b9150509250929050565b600080fd5b60008083601f840112612a3157612a30612360565b5b8235905067ffffffffffffffff811115612a4e57612a4d612a16565b5b602083019150836001820283011115612a6a57612a6961240c565b5b9250929050565b60008060008060608587031215612a8b57612a8a612153565b5b6000612a9987828801612263565b9450506020612aaa87828801612874565b935050604085013567ffffffffffffffff811115612acb57612aca612158565b5b612ad787828801612a1b565b925092505092959194509250565b600067ffffffffffffffff821115612b0057612aff612365565b5b612b09826122f4565b9050602081019050919050565b6000612b29612b2484612ae5565b6123c5565b905082815260208101848484011115612b4557612b446125f5565b5b612b5084828561262b565b509392505050565b600082601f830112612b6d57612b6c612360565b5b8135612b7d848260208601612b16565b91505092915050565b60008060008060808587031215612ba057612b9f612153565b5b600085013567ffffffffffffffff811115612bbe57612bbd612158565b5b612bca878288016124d8565b945050602085013567ffffffffffffffff811115612beb57612bea612158565b5b612bf78782880161259b565b935050604085013567ffffffffffffffff811115612c1857612c17612158565b5b612c2487828801612731565b925050606085013567ffffffffffffffff811115612c4557612c44612158565b5b612c5187828801612b58565b91505092959194509250565b60008083601f840112612c7357612c72612360565b5b8235905067ffffffffffffffff811115612c9057612c8f612a16565b5b602083019150836001820283011115612cac57612cab61240c565b5b9250929050565b60008060008060608587031215612ccd57612ccc612153565b5b6000612cdb8782880161245a565b9450506020612cec87828801612263565b935050604085013567ffffffffffffffff811115612d0d57612d0c612158565b5b612d1987828801612c5d565b925092505092959194509250565b612d308161275f565b82525050565b6000602082019050612d4b6000830184612d27565b92915050565b60008060408385031215612d6857612d67612153565b5b6000612d768582860161245a565b9250506020612d8785828601612263565b9150509250929050565b6000819050919050565b6000612db6612db1612dac84612411565b612d91565b612411565b9050919050565b6000612dc882612d9b565b9050919050565b6000612dda82612dbd565b9050919050565b612dea81612dcf565b82525050565b6000602082019050612e056000830184612de1565b92915050565b7f476f7665726e6f723a206f6e6c79476f7665726e616e63650000000000000000600082015250565b6000612e416018836122b0565b9150612e4c82612e0b565b602082019050919050565b60006020820190508181036000830152612e7081612e34565b9050919050565b7f4e487b7100000000000000000000000000000000000000000000000000000000600052602260045260246000fd5b60006002820490506001821680612ebe57607f821691505b602082108103612ed157612ed0612e77565b5b50919050565b7f476f7665726e6f723a2070726f706f73616c206e6f742073756363657373667560008201527f6c00000000000000000000000000000000000000000000000000000000000000602082015250565b6000612f336021836122b0565b9150612f3e82612ed7565b604082019050919050565b60006020820190508181036000830152612f6281612f26565b9050919050565b612f7281612850565b82525050565b6000606082019050612f8d6000830186612d27565b612f9a6020830185612222565b612fa76040830184612f69565b949350505050565b7f476f7665726e6f723a20756e6b6e6f776e2070726f706f73616c206964000000600082015250565b6000612fe5601d836122b0565b9150612ff082612faf565b602082019050919050565b6000602082019050818103600083015261301481612fd8565b9050919050565b7f4e487b7100000000000000000000000000000000000000000000000000000000600052601160045260246000fd5b600061305582612218565b915061306083612218565b9250828210156130735761307261301b565b5b828203905092915050565b7f476f7665726e6f72436f6d7061746962696c697479427261766f3a2070726f7060008201527f6f73657220766f7465732062656c6f772070726f706f73616c2074687265736860208201527f6f6c640000000000000000000000000000000000000000000000000000000000604082015250565b60006131006043836122b0565b915061310b8261307e565b606082019050919050565b6000602082019050818103600083015261312f816130f3565b9050919050565b7f476f7665726e6f723a20696e76616c69642070726f706f73616c206c656e677460008201527f6800000000000000000000000000000000000000000000000000000000000000602082015250565b60006131926021836122b0565b915061319d82613136565b604082019050919050565b600060208201905081810360008301526131c181613185565b9050919050565b7f476f7665726e6f723a20656d7074792070726f706f73616c0000000000000000600082015250565b60006131fe6018836122b0565b9150613209826131c8565b602082019050919050565b6000602082019050818103600083015261322d816131f1565b9050919050565b7f476f7665726e6f723a2070726f706f73616c20616c726561647920657869737460008201527f7300000000000000000000000000000000000000000000000000000000000000602082015250565b60006132906021836122b0565b915061329b82613234565b604082019050919050565b600060208201905081810360008301526132bf81613283565b9050919050565b600067ffffffffffffffff82169050919050565b60006132e5826132c6565b91506132f0836132c6565b92508267ffffffffffffffff0382111561330d5761330c61301b565b5b828201905092915050565b61332181612431565b82525050565b600081519050919050565b600082825260208201905092915050565b6000819050602082019050919050565b61335c81612431565b82525050565b600061336e8383613353565b60208301905092915050565b6000602082019050919050565b600061339282613327565b61339c8185613332565b93506133a783613343565b8060005b838110156133d85781516133bf8882613362565b97506133ca8361337a565b9250506001810190506133ab565b5085935050505092915050565b600081519050919050565b600082825260208201905092915050565b6000819050602082019050919050565b61341a81612218565b82525050565b600061342c8383613411565b60208301905092915050565b6000602082019050919050565b6000613450826133e5565b61345a81856133f0565b935061346583613401565b8060005b8381101561349657815161347d8882613420565b975061348883613438565b925050600181019050613469565b5085935050505092915050565b600081519050919050565b600082825260208201905092915050565b6000819050602082019050919050565b600082825260208201905092915050565b60006134eb826122a5565b6134f581856134cf565b93506135058185602086016122c1565b61350e816122f4565b840191505092915050565b600061352583836134e0565b905092915050565b6000602082019050919050565b6000613545826134a3565b61354f81856134ae565b935083602082028501613561856134bf565b8060005b8581101561359d578484038952815161357e8582613519565b94506135898361352d565b925060208a01995050600181019050613565565b50829750879550505050505092915050565b600081519050919050565b600082825260208201905092915050565b6000819050602082019050919050565b600081519050919050565b600082825260208201905092915050565b6000613602826135db565b61360c81856135e6565b935061361c8185602086016122c1565b613625816122f4565b840191505092915050565b600061363c83836135f7565b905092915050565b6000602082019050919050565b600061365c826135af565b61366681856135ba565b935083602082028501613678856135cb565b8060005b858110156136b457848403895281516136958582613630565b94506136a083613644565b925060208a0199505060018101905061367c565b50829750879550505050505092915050565b60006136e16136dc6136d7846132c6565b612d91565b612218565b9050919050565b6136f1816136c6565b82525050565b60006101208201905061370d600083018c612222565b61371a602083018b613318565b818103604083015261372c818a613387565b905081810360608301526137408189613445565b90508181036080830152613754818861353a565b905081810360a08301526137688187613651565b905061377760c08301866136e8565b61378460e08301856136e8565b8181036101008301526137978184612305565b90509a9950505050505050505050565b600060808201905081810360008301526137c18187613387565b905081810360208301526137d58186613445565b905081810360408301526137e98185613651565b90506137f86060830184612d27565b95945050505050565b60006040820190506138166000830185613318565b6138236020830184612222565b9392505050565b6000815190506138398161224c565b92915050565b60006020828403121561385557613854612153565b5b60006138638482850161382a565b91505092915050565b600061387782612218565b915061388283612218565b9250817fffffffffffffffffffffffffffffffffffffffffffffffffffffffffffffffff04831182151516156138bb576138ba61301b565b5b828202905092915050565b7f4e487b7100000000000000000000000000000000000000000000000000000000600052601260045260246000fd5b600061390082612218565b915061390b83612218565b92508261391b5761391a6138c6565b5b828204905092915050565b7f476f7665726e6f72566f74657351756f72756d4672616374696f6e3a2071756f60008201527f72756d4e756d657261746f72206f7665722071756f72756d44656e6f6d696e6160208201527f746f720000000000000000000000000000000000000000000000000000000000604082015250565b60006139a86043836122b0565b91506139b382613926565b606082019050919050565b600060208201905081810360008301526139d78161399b565b9050919050565b60006040820190506139f36000830185612222565b613a006020830184612222565b9392505050565b7f4e487b7100000000000000000000000000000000000000000000000000000000600052603260045260246000fd5b600081905092915050565b6000613a4c826135db565b613a568185613a36565b9350613a668185602086016122c1565b80840191505092915050565b6000613a7e8284613a41565b915081905092915050565b6000613a9482612218565b91507fffffffffffffffffffffffffffffffffffffffffffffffffffffffffffffffff8203613ac657613ac561301b565b5b600182019050919050565b7f476f7665726e6f723a20766f7465206e6f742063757272656e746c792061637460008201527f6976650000000000000000000000000000000000000000000000000000000000602082015250565b6000613b2d6023836122b0565b9150613b3882613ad1565b604082019050919050565b60006020820190508181036000830152613b5c81613b20565b9050919050565b6000608082019050613b786000830187612222565b613b856020830186612f69565b613b926040830185612222565b8181036060830152613ba48184612305565b905095945050505050565b6000613bba82612218565b9150613bc583612218565b9250827fffffffffffffffffffffffffffffffffffffffffffffffffffffffffffffffff03821115613bfa57613bf961301b565b5b828201905092915050565b7f53616665436173743a2076616c756520646f65736e27742066697420696e203660008201527f3420626974730000000000000000000000000000000000000000000000000000602082015250565b6000613c616026836122b0565b9150613c6c82613c05565b604082019050919050565b60006020820190508181036000830152613c9081613c54565b9050919050565b600081905092915050565b7f1901000000000000000000000000000000000000000000000000000000000000600082015250565b6000613cd8600283613c97565b9150613ce382613ca2565b600282019050919050565b6000819050919050565b613d09613d048261275f565b613cee565b82525050565b6000613d1a82613ccb565b9150613d268285613cf8565b602082019150613d368284613cf8565b6020820191508190509392505050565b6000608082019050613d5b6000830187612d27565b613d686020830186612f69565b613d756040830185612d27565b613d826060830184612d27565b95945050505050565b7f45434453413a20696e76616c6964207369676e61747572650000000000000000600082015250565b6000613dc16018836122b0565b9150613dcc82613d8b565b602082019050919050565b60006020820190508181036000830152613df081613db4565b9050919050565b7f45434453413a20696e76616c6964207369676e6174757265206c656e67746800600082015250565b6000613e2d601f836122b0565b9150613e3882613df7565b602082019050919050565b60006020820190508181036000830152613e5c81613e20565b9050919050565b7f45434453413a20696e76616c6964207369676e6174757265202773272076616c60008201527f7565000000000000000000000000000000000000000000000000000000000000602082015250565b6000613ebf6022836122b0565b9150613eca82613e63565b604082019050919050565b60006020820190508181036000830152613eee81613eb2565b9050919050565b7f45434453413a20696e76616c6964207369676e6174757265202776272076616c60008201527f7565000000000000000000000000000000000000000000000000000000000000602082015250565b6000613f516022836122b0565b9150613f5c82613ef5565b604082019050919050565b60006020820190508181036000830152613f8081613f44565b9050919050565b7f50656f706c6573476f7665726e6f723a20766f746520616c726561647920636160008201527f7374000000000000000000000000000000000000000000000000000000000000602082015250565b6000613fe36022836122b0565b9150613fee82613f87565b604082019050919050565b6000602082019050818103600083015261401281613fd6565b9050919050565b600060208201905061402e6000830184613318565b92915050565b7f50656f706c6573476f7665726e6f723a20696e76616c69642076616c7565206660008201527f6f7220656e756d20566f74655479706500000000000000000000000000000000602082015250565b60006140906030836122b0565b915061409b82614034565b604082019050919050565b600060208201905081810360008301526140bf81614083565b9050919050565b7f416464726573733a20696e73756666696369656e742062616c616e636520666f60008201527f722063616c6c0000000000000000000000000000000000000000000000000000602082015250565b60006141226026836122b0565b915061412d826140c6565b604082019050919050565b6000602082019050818103600083015261415181614115565b9050919050565b7f416464726573733a2063616c6c20746f206e6f6e2d636f6e7472616374000000600082015250565b600061418e601d836122b0565b915061419982614158565b602082019050919050565b600060208201905081810360008301526141bd81614181565b9050919050565b600060a0820190506141d96000830188612d27565b6141e66020830187612d27565b6141f36040830186612d27565b6142006060830185612222565b61420d6080830184613318565b969550505050505056fe476f7665726e6f723a2063616c6c20726576657274656420776974686f7574206d657373616765416464726573733a206c6f772d6c6576656c2063616c6c20776974682076616c7565206661696c6564a26469706673582212206541e30a1ea927b7e8f5a1bf5362ff3ab9f4f3c9bd13b877a46ffcf9a9bbc41d64736f6c634300080d0033",
  "immutableReferences": {
    "3794": [
      {
        "length": 32,
        "start": 4586
      },
      {
        "length": 32,
        "start": 4768
      },
      {
        "length": 32,
        "start": 4949
      }
    ],
    "6804": [
      {
        "length": 32,
        "start": 6495
      }
    ],
    "6806": [
      {
        "length": 32,
        "start": 6454
      }
    ],
    "6808": [
      {
        "length": 32,
        "start": 6368
      }
    ],
    "6810": [
      {
        "length": 32,
        "start": 6571
      }
    ],
    "6812": [
      {
        "length": 32,
        "start": 6604
      }
    ],
    "6814": [
      {
        "length": 32,
        "start": 6538
      }
    ]
  },
  "source": "// SPDX-License-Identifier: MIT\r\npragma solidity ^0.8.0;\r\n\r\nimport \"@openzeppelin/contracts/governance/Governor.sol\";\r\nimport \"@openzeppelin/contracts/governance/compatibility/GovernorCompatibilityBravo.sol\";\r\nimport \"@openzeppelin/contracts/governance/extensions/GovernorVotes.sol\";\r\nimport \"@openzeppelin/contracts/governance/extensions/GovernorCountingSimple.sol\";\r\nimport \"@openzeppelin/contracts/governance/extensions/GovernorVotesQuorumFraction.sol\";\r\nimport \"@openzeppelin/contracts/governance/extensions/GovernorTimelockControl.sol\";\r\n\r\ninterface IERC20 {\r\n    function balanceOf(address) external view returns (uint256);\r\n}\r\n\r\n/// Governor that takes 1 vote per palm holder\r\ncontract PeoplesGovernor is Governor, GovernorVotes, GovernorVotesQuorumFraction{\r\n    address palmAddress = 0x1A4D7378f1eCe02e76bbCFB0a8f4A9d8F607a819;\r\n\r\n    struct ProposalVote {\r\n        uint256 againstVotes;\r\n        uint256 forVotes;\r\n        uint256 abstainVotes;\r\n        mapping(address => bool) hasVoted;\r\n    }\r\n\r\n    mapping(uint256 => ProposalVote) private _proposalVotes;\r\n    enum VoteType {\r\n        Against,\r\n        For,\r\n        Abstain\r\n    }\r\n\r\n    constructor(IVotes _token)\r\n        Governor(\"PalmGovernor\")\r\n        GovernorVotes(_token)\r\n        GovernorVotesQuorumFraction(4)\r\n    {}\r\n\r\n    function votingDelay() public pure override returns (uint256) {\r\n        return 6575; // 1 day\r\n    }\r\n\r\n    function votingPeriod() public pure override returns (uint256) {\r\n        return 46027; // 1 week\r\n    }\r\n\r\n    function proposalThreshold() public pure override returns (uint256) {\r\n        return 0;\r\n    }\r\n\r\n    function hasVoted(uint256 proposalId, address account) public view virtual override returns (bool) {\r\n        return _proposalVotes[proposalId].hasVoted[account];\r\n    }\r\n\r\n    function COUNTING_MODE() public pure virtual override returns (string memory) {\r\n        return \"support=bravo&wuorum=for,abstain\";\r\n    }\r\n\r\n    function _countVote(\r\n        uint256 proposalId,\r\n        address account,\r\n        uint8 support,\r\n        uint256 weight\r\n    ) internal override {\r\n        ProposalVote storage proposalVote = _proposalVotes[proposalId];\r\n        require(!proposalVote.hasVoted[account], \"PeoplesGovernor: vote already cast\");\r\n\r\n        proposalVote.hasVoted[account] = true;\r\n\r\n        uint256 balance = IERC20(palmAddress).balanceOf(msg.sender);\r\n        uint256 totalVotingPower = 0;\r\n\r\n        // Calculating peoples branch power\r\n        if (balance >= 1000) {\r\n            totalVotingPower += 1;\r\n        }\r\n\r\n        // Calculating whales branch power\r\n        if (balance >= 1) {\r\n            totalVotingPower += balance;\r\n        }\r\n\r\n        if (support == uint8(VoteType.Against)) {\r\n            proposalVote.againstVotes += totalVotingPower;\r\n        }\r\n        else if (support == uint8(VoteType.For)) {\r\n            proposalVote.forVotes += totalVotingPower;\r\n        }\r\n        else if (support == uint8(VoteType.Abstain)) {\r\n            proposalVote.abstainVotes += totalVotingPower;\r\n        }\r\n        else {\r\n            revert(\"PeoplesGovernor: invalid value for enum VoteType\");\r\n        }\r\n    }\r\n\r\n    function _quorumReached(uint256 proposalId) internal view virtual override returns (bool) {\r\n        ProposalVote storage proposalVote = _proposalVotes[proposalId];\r\n\r\n        return quorum(proposalSnapshot(proposalId)) <= proposalVote.forVotes + proposalVote.abstainVotes;\r\n    }\r\n\r\n    function _voteSucceeded(uint256 proposalId) internal view virtual override returns (bool) {\r\n        ProposalVote storage proposalVote = _proposalVotes[proposalId];\r\n        return proposalVote.forVotes > proposalVote.againstVotes;\r\n    }\r\n}",
  "sourcePath": "/Users/PeroniF5/LocalWorkspace/PalmTreeWorkspace/PalmContracts/contracts/governance/PalmGovernor.sol",
  "compiler": {
    "name": "solc",
    "version": "0.8.13+commit.abaa5c0e.Emscripten.clang"
  },
  "schemaVersion": "3.4.7",
  "updatedAt": "2022-04-15T23:41:25.601Z",
  "devdoc": {
    "kind": "dev",
    "methods": {
      "COUNTING_MODE()": {
        "details": "A description of the possible `support` values for {castVote} and the way these votes are counted, meant to be consumed by UIs to show correct vote options and interpret the results. The string is a URL-encoded sequence of key-value pairs that each describe one aspect, for example `support=bravo&quorum=for,abstain`. There are 2 standard keys: `support` and `quorum`. - `support=bravo` refers to the vote options 0 = Against, 1 = For, 2 = Abstain, as in `GovernorBravo`. - `quorum=bravo` means that only For votes are counted towards quorum. - `quorum=for,abstain` means that both For and Abstain votes are counted towards quorum. NOTE: The string can be decoded by the standard https://developer.mozilla.org/en-US/docs/Web/API/URLSearchParams[`URLSearchParams`] JavaScript class."
      },
      "castVote(uint256,uint8)": {
        "details": "See {IGovernor-castVote}."
      },
      "castVoteBySig(uint256,uint8,uint8,bytes32,bytes32)": {
        "details": "See {IGovernor-castVoteBySig}."
      },
      "castVoteWithReason(uint256,uint8,string)": {
        "details": "See {IGovernor-castVoteWithReason}."
      },
      "execute(address[],uint256[],bytes[],bytes32)": {
        "details": "See {IGovernor-execute}."
      },
      "hasVoted(uint256,address)": {
        "details": "Returns weither `account` has cast a vote on `proposalId`."
      },
      "hashProposal(address[],uint256[],bytes[],bytes32)": {
        "details": "See {IGovernor-hashProposal}. The proposal id is produced by hashing the RLC encoded `targets` array, the `values` array, the `calldatas` array and the descriptionHash (bytes32 which itself is the keccak256 hash of the description string). This proposal id can be produced from the proposal data which is part of the {ProposalCreated} event. It can even be computed in advance, before the proposal is submitted. Note that the chainId and the governor address are not part of the proposal id computation. Consequently, the same proposal (with same operation and same description) will have the same id if submitted on multiple governors accross multiple networks. This also means that in order to execute the same operation twice (on the same governor) the proposer will have to change the description in order to avoid proposal id conflicts."
      },
      "name()": {
        "details": "See {IGovernor-name}."
      },
      "proposalDeadline(uint256)": {
        "details": "See {IGovernor-proposalDeadline}."
      },
      "proposalSnapshot(uint256)": {
        "details": "See {IGovernor-proposalSnapshot}."
      },
      "proposalThreshold()": {
        "details": "Part of the Governor Bravo's interface: _\"The number of votes required in order for a voter to become a proposer\"_."
      },
      "propose(address[],uint256[],bytes[],string)": {
        "details": "See {IGovernor-propose}."
      },
      "quorum(uint256)": {
        "details": "Returns the quorum for a block number, in terms of number of votes: `supply * numerator / denominator`."
      },
      "quorumDenominator()": {
        "details": "Returns the quorum denominator. Defaults to 100, but may be overridden."
      },
      "quorumNumerator()": {
        "details": "Returns the current quorum numerator. See {quorumDenominator}."
      },
      "relay(address,uint256,bytes)": {
        "details": "Relays a transaction or function call to an arbitrary target. In cases where the governance executor is some contract other than the governor itself, like when using a timelock, this function can be invoked in a governance proposal to recover tokens or Ether that was sent to the governor contract by mistake. Note that if the executor is simply the governor itself, use of `relay` is redundant."
      },
      "state(uint256)": {
        "details": "See {IGovernor-state}."
      },
      "supportsInterface(bytes4)": {
        "details": "See {IERC165-supportsInterface}."
      },
      "updateQuorumNumerator(uint256)": {
        "details": "Changes the quorum numerator. Emits a {QuorumNumeratorUpdated} event. Requirements: - Must be called through a governance proposal. - New numerator must be smaller or equal to the denominator."
      },
      "version()": {
        "details": "See {IGovernor-version}."
      },
      "votingDelay()": {
        "details": "Delay, in number of block, between the proposal is created and the vote starts. This can be increassed to leave time for users to buy voting power, of delegate it, before the voting of a proposal starts."
      },
      "votingPeriod()": {
        "details": "Delay, in number of blocks, between the vote start and vote ends. NOTE: The {votingDelay} can delay the start of the vote. This must be considered when setting the voting duration compared to the voting delay."
      }
    },
    "version": 1
  },
  "userdoc": {
    "kind": "user",
    "methods": {
      "COUNTING_MODE()": {
        "notice": "module:voting"
      },
      "getVotes(address,uint256)": {
        "notice": "Read the voting weight from the token's built in snapshot mechanism (see {IGovernor-getVotes})."
      },
      "hasVoted(uint256,address)": {
        "notice": "module:voting"
      },
      "votingDelay()": {
        "notice": "module:user-config"
      },
      "votingPeriod()": {
        "notice": "module:user-config"
      }
    },
    "notice": "Governor that takes 1 vote per palm holder",
    "version": 1
  }
}